:10000000C0260020A12A0000E19D00008D2A0000EA
:100010008D2A00008D2A00008D2A000000000000BB
:10002000000000000000000000000000092C00009B
:100030008D2A000000000000A92B00008D2A00007E
:10004000E92D000019490000E92D0000E92D00000C
:10005000E92D0000E92D0000E92D0000E92D000048
:10006000E92D0000E92D0000F16C0000E92D0000F1
:10007000E92D0000E92D0000E92D0000E92D000028
:10008000E92D0000E92D0000E92D0000E92D000018
:100090007D490000E92D0000E92D0000E92D000058
:1000A000E92D0000E92D0000E92D0000E92D0000F8
:1000B000E92D0000E92D0000E92D0000E92D0000E8
:1000C000E92D0000E92D0000E92D0000E92D0000D8
:1000D000E92D0000E92D0000E92D0000E92D0000C8
:1000E000E92D0000E92D0000E92D0000E92D0000B8
:1000F000E92D0000E92D0000E92D0000E92D0000A8
:1001000018B1034B1860002070474FF0FF30704764
:1001100000000020014B1B685B68184700000020AE
:10012000014B1B689B68184700000020014B1B68AF
:100130001B69184700000020014B1B685B691847CA
:1001400000000020014B1B689B691847000000203D
:10015000014B1B68DB69184700000020014B1B683E
:100160001B6A184700000020014B1B689B6A184758
:100170000000002030B4044C9DF80850246802951B
:10018000E468A44630BC604700000020014B1870B2
:10019000704700BF28090020914208B503B20AD079
:1001A000072804D940F2CA31074800F03FFE980002
:1001B0006030C0B208BD072802D940F2C231F3E76F
:1001C00098003030F5E700BF22BE0000F8B50B7A8A
:1001D0000022C0E9002205460E46A3B31A4B036075
:1001E0008C7A04714F7A20463946FFF7D5FF0122F9
:1001F000687139462046FFF7CFFFA871A0007379D8
:10020000327900F1804000F5C04003F01F0343EA5B
:100210004213D0F8102522F4991222F4F852C0F8B3
:100220001025D0F8102587F001071B0242EA07527B
:1002300003F47C531343C0F81035D0F8103543F065
:100240000303C0F81035F8BD00600040024B186889
:10025000003818BF012070472C09002010B49DF809
:1002600004400194024C2468A44610BC604700BFBF
:100270002C090020024B5B6803B11847704700BF90
:100280002C09002048B103682BB103C8034B83E855
:100290000300002070476FF0150070472C09002004
:1002A00008B5114BD3F8042522F00302C3F8042546
:1002B000D3F8082522F0030242F00202C3F8082511
:1002C000102292FAA2F2B2FA82F2092A04DD074859
:1002D0004FF4737100F0AAFDC3F810250122DA6013
:1002E0000022C3F8002208BD0080004055BE000077
:1002F000084B01220021DA60C3F84005C3F8401121
:100300001A60D3F84021002AFBD001225A601A61FA
:10031000704700BF0080004000220F4938B50446F6
:10032000134644FA02F0C007D5B248BF581C02F188
:10033000010244BFCD54C3B2042AF2D1064DC3F129
:100340000402042BD2B24FF0FF0188BF0022E8184C
:1003500000F05EFE2C7138BD3409002038B5054D23
:100360002B7983420C4601D1285D38BDFFF7D4FFBD
:10037000FAE700BF3409002090F9002090F902301C
:1003800041889A42034B0288C7BF1A80598019805E
:100390005A8070473C0900202DE9F0411D461E4B54
:1003A0009DF9188093F902701446C21B002ACBBF36
:1003B00093F90070DB785A786B70A0EB070000F3BC
:1003C0000700C8BF6A70414640B2D4BF002601266C
:1003D00000F0BCFCB4F51B6F07442870AF7017D851
:1003E00040F665139C4215D9A4F665140522B4FBAA
:1003F000F2F4E4B2414600F07FFCE0235E430E23BA
:1004000003FB0464054E3444235C6B70BDE8F0814B
:100410000F24EFE70024EDE73C09002084000020D2
:100420000048704724A800002DE9F04F90F9002003
:100430004378193A732151438FB001F512411E3BA5
:10044000514304919901A1F5DE715943059147216A
:10045000594303FB02F0A1F5CC71414306914921B8
:10046000514301F51A414A43029268225A43A2F5C8
:10047000E062534303938C4B01936FF02204A4EB8F
:10048000C40212054FF4E00304FB04F504FB03F37C
:10049000864858BF134605FB04F10793844B484335
:1004A00001FB04F803FB05FB034648BF43420893E6
:1004B000492643465E4382464FF4FE07A4EBC41030
:1004C000B1464FEA004048BFC6F10009674348BF44
:1004D0000346784858BF3B4609934843764B01464C
:1004E00048BF41425D430A914346562159430B465A
:1004F00048BF4B420B93BBF1000F079B14BF4FF05B
:10050000FF384FF00108CBF1000E08BF4FF0000E8E
:10051000002AB4BF4FF0FF3201221B1253434FEAAF
:100520002E2E08FB0E33DDF820E0DDF80480BAF152
:10053000000F4FEA2E2EB4BF4FF0FF320122002EE3
:100540000EFB02334FEA2929B4BF4FF0FF3E4FF0B4
:10055000010E0EFB0933002DBC46099A0793C5F125
:10056000000712BF4FF0FF3301230027BCF1000F3B
:10057000B4BF4FF0FF350125D211FF116A4303FBD1
:1005800007220A9BDFF834A100284FEAE317B4BF23
:100590004FF0FF33012303FB07220B9B0029B4BF5D
:1005A0004FF0FF310121DB1103FB012308930027EA
:1005B000F8B200F0DBFB049B0D93414B9AF803501B
:1005C000572111FB00310DF133024FF0140906469B
:1005D00041430E230DA8063D8DF8339000F003FE35
:1005E0006FF04301694301F59C716943082300F0F2
:1005F000FAFD05990D2300F0F6FD4B46079900F032
:10060000F2FD069900F0EFFD0D9B9AF8015003F5FD
:10061000E0035B140133A3F3C40308F8013B132385
:100620008DF83330029B0D9369214FF4086311FB61
:10063000063171430B2300F0D6FDA5F1190B6FF0C5
:100640006E0101FB0BF101F5043111230BFB01F1EC
:1006500000F0C9FD03990B2300F0C5FD4B46089936
:1006600000F0C1FD0D9B03F1E0735B144D4503F1F8
:1006700001034FEAE3038CBF043D1025AB4203DBCB
:100680001F2BA8BF1F231D4601370E2F88F8DF50F0
:100690008ED1019B05340E332D2C01937FF4EFAEE8
:1006A0000FB0BDE8F08F00BF84000020C0FEFFFF48
:1006B0000030FCFFE0F6FFFF0058FCFF3C09002083
:1006C00040E6FFFF4FF0805230B5D2F8301103689A
:1006D000082922D1D2F83421052A1ED811498A5C72
:1006E000DAB14FF0FF310022D3F80855D3F80C45AA
:1006F000C3F80025C3F80815C3F80C150921C3F881
:100700000015C3F80025C3F80855C3F80C458379D4
:1007100013B1054B01225A6030BD0022C3F80025F9
:10072000F5E700BF2CA8000000F00240F7B50C462A
:1007300005461022002100F06BFC23682B60637ECD
:1007400062690127002607FA03F3C2F80C3504F1A9
:100750001400334632463946CDE9006600F007FD05
:10076000637A626807FA03F3C2F80C35201D33463A
:100770003A463946CDE9006600F0F9FC04F10C0078
:10078000334632463146CDE9006600F0F0FC617E2A
:10079000237E627A286801F01F0141EA4311237A1F
:1007A00002F01F0242EA4312637C247CC0F8081561
:1007B00003F01F0343EA4413C0F80C25C0F81035BA
:1007C00000F0F2FB20B12A68144B9A4208BFAF71C7
:1007D00000F0EAFBE0B12A68104B9A4218D12B1DB9
:1007E0000F4A23F4FF5323F01F03934212D8C3F39D
:1007F0004F3101228A40A81D002103F50053984281
:1008000041EA02014FEA4202F7D80123E960EB71A5
:1008100003B0F0BD4FF48071F7E700BF00F0024075
:10082000FFFF002090F86430FF2B10B515D00B4C63
:1008300001229A40C4F80825DA0002F1804202F54C
:10084000F83203F511730021C2F81015C2F814151F
:1008500044F82310FF2380F8643010BD00F00140FD
:100860002DE9F04F87B08046109D20B940F261110C
:10087000752000F0E5FA88180968407901EB000A54
:1008800098F81410A1B398F81560FF2E01D1E1215A
:10089000EEE795F86420FF2A1ED185F8646098F889
:1008A000007034B2A7B3012F40F09C80E40004F143
:1008B000804404F5F8344D4AD4F814350BB306F5EA
:1008C000117342F823A0012303FA06F6C2F8046567
:1008D000002007B0BDE8F08F964206D1434906F5E7
:1008E000117251F82220002AD9D06FF01500F0E7DC
:1008F00022B195F85060FF2ED1D1F6E795F85160FE
:10090000F9E7D8F80430C4F81035C4F814A5DAE7CC
:10091000D8F80C2098F81000D21AD31E394600934C
:10092000FFF71CFDD8F8043000F1500B814603EBB3
:100930008B032846019300F0AFFDB9F1FF0F02D100
:100940004FF4A67194E7296C059001F1100395F816
:100950003D00A96B02930B1805F1400095F852B0C9
:100960000393049000F050FC059A0498920002F062
:10097000FC02394600F08DFC4FEACB0202F18042C6
:1009800002F5F832019BC2F81035029BC2F814350B
:100990000BF51171154A039B42F82130012101FA30
:1009A0000BF3E400C2F8043504F180442B6C95F895
:1009B0003EC0A86B04F5F83403F58C73C4F8103509
:1009C00006F511736044C4F814A5B14042F8230041
:1009D000C2F80415D8F80430009A09F5A87943F84C
:1009E000292075E74FF4BB7142E700BF00F00140DA
:1009F00038B590F85220044601250F4805FA02F355
:100A0000C0F80835D30003F1804303F5F83302F54D
:100A100011720021C3F81015C3F8141540F8221004
:100A2000204650F8403F5D6100F057FC94F83E309E
:100A3000A26BD55038BD00BF00F0014038B5044668
:100A4000104624B940F28F11752000F0F9F9237D8A
:100A5000D3B1637D124DD900012201F180419A404A
:100A600001F5F83103F51173C5F808250022C1F826
:100A70001025C1F8142545F8232023785BB1012BFC
:100A80000BD04FF4D471DFE711B192F85030E1E7A9
:100A900092F85130DEE7FFF7ABFF002038BD00BF12
:100AA00000F0014090F85010CA0070B502F1804289
:100AB000144C012505FA01F302F5F83201F5117124
:100AC000C4F808350023C2F81035C2F8143544F8CC
:100AD000213090F85110CA0002F180428D4002F599
:100AE000F83201F51171C4F80855C2F81035C2F892
:100AF000143544F82130FFF795FEBDE87040FFF74C
:100B000077BF00BF00F00140C36E10B50446DBB1F3
:100B100090F880300E4A02EBC301012003F5007308
:100B20004860002142F8231004F168002246FFF7D4
:100B300085FF20B14FF42671752000F081F9FF2365
:100B400084F88030E06610BD4FF0FF30FBE700BF57
:100B500000F00140024B83F885000020704700BF81
:100B6000400900200148FFF7CFBF00BF4009002027
:100B7000014A00F058BC00BF400900200148FFF7BF
:100B800091BF00BF40090020014800F030BC00BF09
:100B900040090020014800F00EBC00BF40090020C1
:100BA000014A00F0E6BB00BF40090020014A00F006
:100BB000BEBB00BF40090020084BDA6910B52AB15E
:100BC000C40742BF93F82110012454505A6922B13E
:100BD000810742BF5B7E0121D15010BD400900203A
:100BE0002DE9FF4106469DF828700D4614469846AB
:100BF000FFF72CFB48B143462246294630460A9768
:100C000004B0BDE8F04100F094BA154C94F8863079
:100C1000A3B994F910203B462946304600F06BFA00
:100C200094F9102094F983309A420CBF94F88430E0
:100C300094F882306B7004B0BDE8F08194F9833091
:100C4000019394F981308DF80F0000930DF10F029C
:100C50003B462946304600F05EFA9DF90F20E1E759
:100C600040090020034A53690BB192F91330037015
:100C7000704700BF4009002010B50F4C636DC3B929
:100C8000A36DB3B9E36DA3B9236E93B9A36B43B15D
:100C900004F14000FFF716FD94F83D30A26B0121EE
:100CA000D150606A20B194F829300122C25000204E
:100CB00010BD4FF0FF30FBE740090020054B93F8D3
:100CC0003E20986B012181505A6A12B193F82A3064
:100CD000D15070474009002008B50146044800F093
:100CE000E0FB20B9BDE808400248FFF709BA08BD9B
:100CF000400900204400002030B50346114890F917
:100D00001C209A4219DD90F924209A4217DA9A1A87
:100D1000846AA05C0C4A15569D420DD00E32002903
:100D200018BF01309442C0B206D129B1013BDBB2F9
:100D3000012B01D80130C0B230BD0D20FCE70020EE
:100D4000FAE700BF0804002034A8000008B5054BEE
:100D500093F91C30984203DAFFF7CEFF024B1B5683
:100D6000184608BD0804002034A800000D2808B566
:100D700004D940F29F11742000F062F8014B18561C
:100D800008BD00BF34A8000010B51C4C94F82C30EE
:100D900073B9012384F82C3000F0E6F848B1184B01
:100DA000A362D823236284F824300823A361237725
:100DB00010BD00F0EFF80028F1D100F0F5F80028A0
:100DC000EDD100F0B3F838B10E4BA362D823236203
:100DD00084F824300423E9E700F0B2F80028F3D1C6
:100DE00000F0B8F80028EFD100F0C8F80028EBD1E7
:100DF00040F2BF11742000F023F800BF0804002067
:100E00006FA8000042A80000BFF34F8F0549064BB2
:100E1000CA6802F4E0621343CB60BFF34F8F00BF98
:100E2000FDE700BF00ED00E00400FA0508B572B66A
:100E3000024B5B6803B19847FFF7E6FFA808002064
:100E40001FB572B6134B5D688DB9FFF7DDFFB2FBBE
:100E5000F6F2DCB20133002AF9D104F110036B443D
:100E600003F80C2C0A2234B901A8A847EDE7024682
:100E700000230A26EDE7631E04AEDCB256FA83F3C4
:100E8000B0FBF2F602FB1600303003F80C0C3046D3
:100E9000E9E700BFA80800201B4B4FF4805270B553
:100EA000C3F88020BFF34F8FBFF36F8F174D184CDF
:100EB0000021C5F80011C3F880212669236943F099
:100EC000100323610123C5F8043306F010062B60DC
:100ED000D5F80031A3B11EB9236923F010032361B3
:100EE0000A4B0122D3F808055A60C3F808230022F0
:100EF000C3F80021044B4FF48052C3F8802170BD29
:100F000000F09FFBE4E700BF00E100E000C000400C
:100F100000ED00E04FF08052034BD2F83011196021
:100F2000D2F834215A607047E4080020034B186857
:100F3000A0F10F0358425841704700BFE408002059
:100F4000034B1868A0F10A0358425841704700BF8C
:100F5000E4080020034B1868A0F10E0358425841E2
:100F6000704700BFE4080020034B1868A0F110038D
:100F700058425841704700BFE4080020044B1868ED
:100F8000062803D0431C584258417047012070473F
:100F9000E4080020034B1868A0F10D0358425841A3
:100FA000704700BFE4080020034B1868A0F1080355
:100FB00058425841704700BFE408002008B5FFF7C9
:100FC000DDFF08B3EFF3108072B6104A13691169A0
:100FD00041F010011161A2F5406203F01003D2F854
:100FE0000011D2F804210A4300D040BF20BF00BF47
:100FF00000BF00BF00BF23B9044A136923F01003E8
:10100000136100B962B608BD20BFFCE700ED00E047
:101010002DE9F04184075FFA81FE5FD0002A59D0A4
:10102000034601E0002A55D003F801EB990702F1CD
:10103000FF32F7D14EEA0E24032A44EA04443ED993
:10104000151FAE08172D06F10106C3F3800147D91D
:101050009846002940D048F8044B771A03EB810CDE
:1010600079080CEBC101CCE900440CF1080C614596
:10107000F9D127F0010C08EB8C016745CCEB8C789B
:1010800005EB880517D02F1F032F0C6013D9A5F18E
:101090000807032F4C600ED9A5F10C07032F8C60B5
:1010A00009D9A5F11007032FCC6004D9143D032DF5
:1010B0000C6188BF4C6102F0030203EB86034AB166
:1010C000013A83F800E005D0012A83F801E018BF57
:1010D00083F802E0BDE8F0811546BEE70346A9E7C4
:1010E00019461546CFE700BF08B5FFF713FFBDE867
:1010F0000840FFF749BE801A00F3070038B540B238
:101100000D4659B21446FFF721FE002328702044F3
:101110006B7040B238BD70B415469DF910209DF932
:101120000C60841A002CC8BF32462A7070BCFFF7CE
:10113000E2BF1FB50C4611461A469DF818300093C1
:1011400003ABFFF78BF89DF80C309DF90E00237070
:101150009DF80D30637004B010BD037A33B143794C
:10116000026803F5E073032142F82310704770B55D
:10117000056844799DF814009DF81060000440EA69
:10118000062040EA8300084304F5E07440EA420088
:1011900045F8240070BD00230360704770470020AD
:1011A00070474FF0FF3070474FF0FF307047704787
:1011B0004FF0FF3070470020704700207047002339
:1011C000037070479DF800300022FFF794BF0020A5
:1011D00070474FF0FF3070474FF0FF3070474FF0CF
:1011E000FF307047704730B5147805689C4204D3CF
:1011F000E41AA1402944016030BD1C1B05FA04F427
:10120000214401601370F7E703684FF00042C3F810
:1012100024250022C3F85425C3F8C0250722C3F8AB
:101220000025704737B561F07F010171002201464A
:10123000427151F8043BADF80420C3F85025C3F8BF
:101240004025C3F84415022201A9C3F84825C3F874
:101250003415C179C3F8382541B14FF08044C568D1
:10126000D4F8002E82602A43C4F8002E0022C3F86E
:10127000182101221A61D3F81821002AFBD021B1CC
:101280004FF080438268C3F8002E9DF8050003B03C
:1012900030BD61F03F0101710146427151F8043BDC
:1012A0000022C3F85025C3F84025C3F84415022195
:1012B000C3F84815C3F83425C3F83825C27942B1BC
:1012C0004FF08041D1F8002E8260C0680243C1F81F
:1012D000002E0022C3F818217047C37923B14FF0C4
:1012E00080438268C3F8002E704710B50446FFF7AC
:1012F000D0FF236801221A61D3F81821002AFBD0FD
:10130000E37923B14FF08043A268C3F8002E10BDEB
:10131000B1F86C30A0F8503091F86E3080F852304F
:10132000FF2380F8643080F8803000207047D36954
:1013300073B506460D461446B3B140B1009213682A
:1013400004F11C010122FFF78BFA58B9666575B1EB
:1013500023680094002204F11C012846FFF780FA5C
:1013600000B9A56502B070BD4FF0FF30FAE728461E
:10137000F8E7536973B506460D461446B3B140B15C
:101380000092536804F114010122FFF769FA58B979
:10139000E66575B163680094002204F114012846E3
:1013A000FFF75EFA00B9256602B070BD4FF0FF305E
:1013B000FAE72846F8E7C36910B50446A3B1406DC3
:1013C00028B122460121FFF739FB60B96065A06DA5
:1013D00028B122460021FFF731FB20B9A065204645
:1013E000FFF720FA002010BD4FF0FF30FBE7436904
:1013F00010B50446A3B1C06D28B122460121FFF704
:101400001DFB60B9E065206E28B122460021FFF780
:1014100015FB20B920662046FFF704FA002010BD16
:101420004FF0FF30FBE773B50123144682F86830B4
:1014300004F1680600220D46E066236884F87C20EB
:10144000009404F11C013046FFF70AFA50B9024635
:101450006368009404F114013046FFF701FA08B9FB
:1014600084F8805002B070BD0323036070470020F1
:1014700070470020704738B50A4690F83D30816BC0
:1014800004460125CD5040300021FFF72EFF94F88F
:101490003E30A26BD55038BD90F8850000F01F009B
:1014A0007047F7B50D46882200212F460446FFF706
:1014B000AFFD0FCF26460FC63B68336095F86F30FF
:1014C00084F8863005F1200104F11400FEF77EFE59
:1014D00005F1140104F11C00FEF778FE05F12C0162
:1014E00004F12400FEF772FE05F1380207CA04F188
:1014F0002C0383E807001846FFF72FFE04F140078E
:1015000005F1600104F13800FEF760FE05F14401C9
:101510003846FFF70BF929462046FFF7F9FE054646
:10152000002876D10190FEF7BBFE3846FFF76CFE2F
:1015300094F83E30A26B0126D650626A94F82A30A5
:10154000D650A068FEF7D4FE02212046FFF793FF95
:1015500029462046FFF78FFF637CA26B8DF804308D
:1015600094F83D302946D6503846FFF75BFE94F894
:101570003E30A26BC0F38400D65029468DF805009A
:101580002046FFF778FF02212046FFF774FFA37C77
:10159000A26B8DF8063094F83D302946D650384677
:1015A000FFF740FEA36B94F83E20616AD65094F892
:1015B0002920C0F384008DF807008E5094F83D2058
:1015C0003846D650FFF77EF894F8861094F910301C
:1015D0009DF9042019B39DF90610BDF80400BDF86B
:1015E00006608A42C7BFA4F88100A4F88360A4F80B
:1015F0008160A4F88300934204D19DF8053084F8FB
:10160000853003E08B4207D06FF0150501A8FEF787
:1016100031FE284603B0F0BD9DF80730EFE79A424F
:1016200008D1BDF80430A4F88130A4F8833094F8D0
:101630008230E4E79DF906209A42E5D1BDF80630F4
:10164000F1E7FFF7BBBC00280CBF6FF015000020CE
:101650007047002070470723037000207047002068
:10166000704700207047000007B50821684608F061
:101670006CFC0728C4BFDDE900235340034AD8BFF0
:101680004FF0FF33136003B05DF804FB280C00201B
:10169000014B1868704700BF280C002038B5114B6B
:1016A00001221A70037893420FD0022B06D10E4C00
:1016B0000E4D0D4803F0DCFD70B138BD002BFCD1A0
:1016C0000B48BDE8384008F0ECBA0A4B1B780BB168
:1016D0000948F6E70948F4E722784421284608F04B
:1016E0006AFBE6E7750300200416002054AB0000F7
:1016F000ECAA00002A16002001AB000040AB00005D
:1017000090F9003023B1012B04D1044808F0C9BA84
:101710000348FBE7002303700248F7E77EAB0000B5
:1017200094AB0000AAAB00001FB5002001F0F4FE4E
:1017300040B91348452108F03EFB6FF005042046F0
:1017400004B010BD00230193039369460123029363
:1017500000F046FD041E05DA0A482246452108F03D
:101760002AFBECE7029B9B07FCD1039C1CB10648BB
:1017700022464521F3E7054808F093FADFE700BF6A
:10178000D1AB0000F6AB000014AC000038AC000098
:1017900030B54FF0E6328BB04FF0C333CDE90123C3
:1017A0001C4A1D4D1068516803AB03C31C460FCD86
:1017B0000FC42B682360194B1B788DF81C30184B15
:1017C00006930825012305A88DF826308DF81E50B4
:1017D00003F080FB0446C8B901A803F0C7FD044626
:1017E000A0B90DEB050003F0DBFD044670B92946F6
:1017F00003A803F0EFFD044640B94F2003F012FEAA
:10180000044618B10748452108F0D5FA20460BB028
:1018100030BD00BF65AC000010A800002C160020F1
:101820009D1600004AAC00002DE9F74F924DDFF8FD
:101830004C92934FDFF84CB2DFF84C82934C944EAD
:101840001E2129709349002208230A7089F800207C
:10185000002101224FF400408BF8003088F800206E
:101860003B7008F0EEF98C4808F01BFA8B4808F042
:1018700018FA8B4B8B498C48009303228B4B08F052
:1018800010FA8B498B4808F00CFAFFF7EDFEFFF7D2
:10189000FFFE0146884808F004FAFFF7F9FEC0F39E
:1018A00007232072000C6372A0721123000AE072F9
:1018B000237382480923237008F0F3F9804808F065
:1018C000F0F995F900300A21002B3170C9BF7D482D
:1018D0007D483370194608F0E4F996F900303B7002
:1018E00013B97A4808F0DDF96A48794DFFF708FF27
:1018F00098F80030DBB197F90010764808F0D1F97C
:101900003B782B70744B01221A70FFF70DFF734F59
:10191000386040B902F056FD0246386070B1704838
:10192000452108F048FA002003B0BDE8F08F6D486B
:1019300008F0B7F999F800302B70E6E7FFF728FFB9
:101940008146386018B1024645216748E9E7674893
:1019500008F0A7F9664808F0A4F9664808F0A1F96C
:101960004FF40040002108F06CF984F80390DFF890
:10197000889199F8003003B9FEE74FF0000A89F822
:1019800000A003F0C5FCA17901F007035A1E032A49
:1019900001F0060064D8B0FA80F0400940005246D9
:1019A000033B032B94BF0023012381F00401C1F307
:1019B00080019B0043EAC1031343184308F04FFB27
:1019C00098F80030002B00F0A580DFF80CA19AF801
:1019D00000307BB195F9000003F03AFD2A7895F9C3
:1019E0000010464808F05DF9227895F90030022A87
:1019F00088BFE371254803F081FB0246386018B1C7
:101A00003F48452108F0D7F99AF80030EBB10021A2
:101A10004FF4A47008F015F900F0F6F896F90020DC
:101A2000384B002AC8BF121A1870374BCCBF52B2BD
:101A3000002201461A708318344808F032F9002356
:101A400033488AF8003008F02CF9A3790133A371E8
:101A5000002340F6CD400021637308F0F2F888E7D8
:101A600030B1052B94BF002001204000012297E7F0
:101A70000122022094E700BF2D160020311600201D
:101A800029160020301600202B16002050030020BD
:101A9000321600202C1600206EAC00008FAC000027
:101AA000E5AC0000BFAC0000C3AC0000B3AC00006C
:101AB000EEAC0000F9AC000004AD000013AD000076
:101AC00019AD00002AAD000069AD000094AD000022
:101AD00033160020AEAD00002A1600202C0C00208A
:101AE000F6AD0000DBAD00001FAE000047AE000009
:101AF00060AE000075AE0000750300208FAE0000E0
:101B0000B2AE00002F1600202E160020D5AE000029
:101B10001FAF000095F9000000F0BCF8002855D078
:101B200033782878184440B203F092FC2A7895F96B
:101B300000102D4808F0B5F823782C48022B81BFFF
:101B40002B7832789B18E37103F0D8FA024638609C
:101B500018B12748452108F02EF9A3790021013357
:101B60004FF4A470A37108F06CF800F04DF896F9EA
:101B70000020204B002AC8BF121A18701E4BCCBF81
:101B800052B2002201461A7083181C4808F089F8E6
:101B90002B789BF9002001335BB29A422B70BFF681
:101BA00057AF01231148637303F0A8FA0246386067
:101BB00018B10F48452108F0FEF84FF4A470002139
:101BC00008F03FF80E4808F06CF8ACE695F9001004
:101BD0000C4808F066F8012340F6CD40002189F852
:101BE000003008F02EF8D3E78FAE0000500300203D
:101BF000B2AE00002F1600202E160020D5AE000039
:101C00005EAF000035AF0000214BD3F80C35DBB2DE
:101C1000082B0AD8082B2AD8DFE803F02729252328
:101C2000211F1D2C050008207047F42B24D00BD851
:101C3000EC2B24D0F02B25D0D82B08BF6FF0270039
:101C400018BF6FF07F007047F82B1ED0FC2B08BF29
:101C50006FF00300F4E7062070470520704704206A
:101C600070470320704702207047002070476FF0D4
:101C70007F007047072070476FF00B0070476FF0D0
:101C8000130070476FF00F0070476FF00700704748
:101C900000100040082813DC10F1140F08DA10F1CE
:101CA000280F0FD010F11E0F14BF00200120704725
:101CB000054B1430C0B223FA00F000F00100704769
:101CC00000207047012070471111D11FB2F5802FFD
:101CD0002DE9F0410AD33449344840F2152207F087
:101CE000F6FF40F21521304807F0E8FF042A08D833
:101CF0002D492E484FF4077207F0E9FF4FF40771A2
:101D0000F1E7043ACD1D8E1825F0070526F00706E9
:101D1000761B172E4FEAD60708D82349234840F2EE
:101D2000252207F0D4FF40F22521DCE7B7FA87F43B
:101D3000C4F12002C4F12404A4000734E408631CA5
:101D40004FF00008BB420560AF60C5F80C8008D9B1
:101D50001549164840F23A2207F0B9FF40F23A21FD
:101D6000C1E74146920005F1100008F051FB630005
:101D700043F001036B8005EBC4023B1B5900A5F83F
:101D800000805180AA1925F83440A2F80280AB5394
:101D900005EBC70321465A8842F001025A802846C3
:101DA000BDE8F04107F054BF75AF000098AF0000E8
:101DB000014B1B68184700BF44020020014B18600C
:101DC000704700BF4402002030B585B004460D4680
:101DD00010220021684608F01BFB02238DF8023018
:101DE0002A46044B01932146684607F0CDFC05B016
:101DF00030BD00BFB11D000080B505460E46174638
:101E0000984606F03BFD034608F06EFBDFF818909D
:101E1000044649F80030424630463946A84754F84F
:101E2000090000F0ABFE00BF0800000008B5044642
:101E3000EFF31183402383F31288BFF36F8F02F017
:101E4000D9F9204601F0E4F9024807F02AFF07F02B
:101E5000D9FFFCE7C1AF00002DE9F84F0446084662
:101E6000A38B1907164612D4022803F0070162D18A
:101E7000204607F039FF88B10138042800F2258197
:101E8000DFE810F0590023017E00C800F5000128AA
:101E90000CBF43F0100143F02001A18304F11400B2
:101EA00006F01AFF002800F0AB8086F31188BFF31C
:101EB0006F8FBDE8F88F03F00702501F01281ED86E
:101EC0000020062A2768C4E9000014D13A4603E03E
:101ED000E08B0130E0831268002AF9D123F0070378
:101EE00043F00202A283204607F0FEFE90B342F0C8
:101EF0002002A2832EE023F007039AB2F2E7042A1D
:101F000033D123F007039AB2A283204607F0ECFEF8
:101F100010B142F02002A283A38B03F00709894588
:101F200040F0DC80A18BCA0640F1218121F0100332
:101F3000A38301F00701D4F81880A38BB8F1000F38
:101F4000B9DA0022276823F00703C4E9002243F02E
:101F50000103A383A38B03F00709894540F0BF80E9
:101F6000002FDFD00025AA4640E08549854840F291
:101F70001B1207F0ACFE40F21B11814807F09EFED9
:101F800041B17F497F484FF4AB7207F0A0FE4FF498
:101F9000AB71F2E7236843B979497A4840F25712A6
:101FA00007F095FE40F25711E7E723691D6845B930
:101FB000734974484FF4AD7207F089FE4FF4AD7168
:101FC000DBE7A38B23F0070343F006039BB2A38355
:101FD0000F4688464FF00609A268002A40F081802B
:101FE000002F40F08180002D9CD0BA4643F00803BA
:101FF00004F1140BA383584606F06EFE002875D139
:102000006149604840F2311207F061FE40F231113F
:102010005D48B3E7022908D059495A4840F25D1299
:1020200007F055FE40F25D11A7E7E78B47B1544931
:1020300054484FF4AF7207F04AFE4FF4AF719CE77B
:1020400023695D6845B94E494E4840F2611207F078
:102050003EFE40F2611190E7A38B23F0070343F0AB
:1020600004039BB2A383B8464FF00409B4E70129E7
:1020700008D0434943484FF4B27207F028FE4FF4AA
:10208000B2717AE7236843B93D493E4840F2651290
:1020900007F01DFE40F265116FE723699D6845B9A1
:1020A000374938484FF4B47207F011FE4FF4B47159
:1020B00063E7A38B23F0070343F005039BB20027DC
:1020C000A383B8464FF0050986E72D492D4840F215
:1020D0006B1207F0FCFD40F26B114EE70027002564
:1020E0007AE74FF0010A81E792467FE786F311888D
:1020F000BFF36F8FBAF1000F16D147BB15B123495B
:102100002046A847EFF31186402383F31288BFF3DC
:102110006F8F584606F0D2FD08BB1B49194888222C
:1021200007F0D5FD882173E7A1680029E5D00E6886
:102130000029E2D0D1F804A043464A462046D047C1
:102140001EB1336831461E46F2E73346FAE7394698
:1021500043464A4620463F6807F0F2FDCDE7584621
:1021600006F0D0FDA38B23F00803A383DAE68B06E9
:102170007FF594AE21F02003A38301F0070177E6F9
:10218000EAAF000098AF00000FB0000091210000FE
:10219000F8B504460D4600F11406EFF3118740230D
:1021A00083F31288BFF36F8F304606F087FD40B986
:1021B00009490A48882207F08AFD0748882107F064
:1021C0007DFD304606F09EFDA5613A462046012180
:1021D000BDE8F840FFF740BE0FB0000098AF000028
:1021E0002DE9F04704460F4607F09AFD051E5DDB1A
:1021F00004F11409EFF3118A402383F31288BFF32B
:102200006F8F484606F05AFD804638B93349344846
:10221000882207F05CFD882130483CE0484606F003
:1022200071FDE38BA68B4FF6FF72934206F0070613
:102230003FD0022E10D10133E3833546484606F0E5
:102240004BFD00283BD12549254840F2311207F0CB
:102250003EFD40F23111DFE7062E13D8DFE806F02D
:10226000092C1212090409006FF085054FF00008CF
:10227000E4E700233B6063687BB9C4E900777EB183
:102280003546F3E7174916484FF4E47207F01FFD8F
:1022900014484FF4E47107F011FD1F606760EEE72A
:1022A000524602212046FFF7D7FD35462846BDE8B5
:1022B000F0876FF00A05D9E76FF00405D6E78AF3D7
:1022C0001188BFF36F8FB8F1000FEFD000233246B3
:1022D0003946204607F034FDE8E700BF0FB00000A4
:1022E00098AF0000EAAF000008B54268816002F0D4
:1022F0000302032A034602D02AB1002000E000684E
:1023000000225A6008BD04490448452207F0DFFC5A
:102310000148452107F0D2FC3CB0000098AF000016
:10232000014B036000207047E8A8000008B504488E
:1023300007F0B7FCBDE80840024807F0B2BC00BF98
:1023400062B0000097B00000014807F075B800BF08
:10235000E8A8000038B5044618B90F4B0F485B6871
:1023600098476168B1F5683F10D0B1F5680F0DD09E
:102370000B4DA9420AD011F46861206807D00146CC
:10238000084804F031FF00232360656038BD142243
:1023900008F03EF8F9E700BFF0020020C5B00000E9
:1023A0002C5F5CA93011002008B520B34368B3F559
:1023B000683F10D101220368BFF35B8F53E8001F11
:1023C000002903D143E800200028F7D1BFF35B8F39
:1023D0000DD1002008BD094A93420AD000684FF091
:1023E000FF324FF0FF3304F0B1FF0028F1D0044872
:1023F000F0E70448EEE76FF4E040EBE72C5F5CA900
:10240000E98FFFFFEA8FFFFF08B5D8B14368B3F546
:10241000683F10D100220368BFF35B8F53E8001FB1
:10242000012903D143E800200028F7D1BFF35B8FD7
:102430000BD1002008BD074A934208D0006805F080
:102440003BF8F6E76FF4E040F4E70348F2E70348AF
:10245000F0E700BF2C5F5CA9E98FFFFFEA8FFFFF69
:1024600010B5044618B91D4B1D485B689847636852
:10247000B3F5683F2FD0B3F5680F2CD0194A9342BB
:1024800019D1236803BB18484FF0FF324FF0FF33D8
:10249000214604F037FE08B923681BB90F4B1348D7
:1024A0005B68984720681422002107F0B1FF4FF4C1
:1024B0006863636008E0B3F5683F0DD83A2B03D03A
:1024C00040F6BA629342DED1206807F00EFF6368DF
:1024D00043F03A03636010BD054AF3E7F0020020C1
:1024E000C5B000002C5F5CA930110020EBB00000EB
:1024F0003A00003A08B5064906484023142207F07E
:10250000DDFEBDE808400449044807F007B800BFF5
:10251000300C002030110020F0A8000004A90000B9
:1025200037B505460C46C9B18B680093D1E9002345
:102530001248452107F03FFC63690093D4E9032367
:102540000F48452107F037FCE2690E48452107F0A6
:1025500032FCA2690C48452107F02DFC012D06D163
:10256000EFF305820948103A452107F024FC214683
:10257000284603B0BDE8304004F00ABC18B10000A2
:102580004CB1000080B1000094B10000C7B1000060
:1025900030BFFFF7FDBF00BF2DE9F0410B4EDFF864
:1025A000308006EB0807CC1B054632460949204619
:1025B00007F020FFA01942460021083C07F028FF41
:1025C0002C6707F10800BDE8F08100BF00000000A3
:1025D0000400000008A80000054B5A699B689A4255
:1025E0001FBF044A536843F080535360704700BFD5
:1025F000C013002000ED00E02DE9F8433D4D80467A
:1026000089463D484521174607F0D5FBAB6ADA06F7
:1026100026D53A48452107F0CEFB1124AB6A1B07AB
:1026200004D53748452107F0C6FB1224314DAB6A6B
:102630009E0717D53348452107F0BDFB6E6BAB6A8B
:102640001C0645D530483246452107F0B4FBB9F1A8
:10265000000F03D0AB6A23F08003AB62132403E0C6
:102660001024DBE76FF01506224DAB6AD80704D5BE
:102670002648452107F09FFB1424AB6A990604D530
:102680002348452107F097FB15241A4DAB6ADA065B
:1026900002D4AB6A9B070AD56B68180507D541467B
:1026A000304600F05BFBB0B180F309880224114B87
:1026B0009A6A920642BF5A6A22F400525A629A6A91
:1026C00042F0FF029A6200233B702046BDE8F88387
:1026D0006FF01506C2E7AB6AD906E8D50D490E487A
:1026E0004FF4927207F0F3FA0A484FF4927107F030
:1026F000E5FA00BF00ED00E0DFB10000FAB1000034
:1027000032B200004AB2000067B2000082B200009C
:10271000A6B20000DAB2000098AF000010B5204C5D
:102720002048452107F047FBA36A990136D51E488A
:10273000452107F040FB1E20A36ADA0104D51B489F
:10274000452107F038FB1F20154CA36A1B0304D555
:102750001748452107F02FFB2120A36A590304D510
:102760001448452107F027FB22200D4CA36A9A0349
:1027700004D51148452107F01EFB2320A36ADB0383
:1027800004D50E48452107F016FB2420044A936A1D
:102790006FEA03436FEA1343936210BD1D20CBE73A
:1027A00000ED00E00CB3000029B3000041B30000CD
:1027B00060B3000083B30000ADB30000CCB30000F1
:1027C00070B5284C06460D462748452107F0F3FA18
:1027D000A36AD9043BD52548452107F0ECFA172018
:1027E000A36A1A0504D52248452107F0E4FA182007
:1027F0001C4CA36A9B0511D51E48452107F0DBFA46
:10280000A26BA36A180408D51B48452107F0D3FA28
:102810001EB1A36A23F40043A3621920114CA36ADA
:10282000590504D51548452107F0C5FA1A20A36AB1
:10283000DA050ED51248452107F0BDFA1B20094ADA
:10284000936A43F47F43936200232B7070BD16207C
:10285000C6E7A36A9B04F2D50A48452107F0ABFA04
:102860001C20ECE700ED00E0FCB3000017B4000012
:1028700032B200002DB400004BB4000065B400007B
:1028800085B40000A6B20000F0B56D4B0446586850
:102890008BB0C0F30803002585F31188BFF36F8F59
:1028A00002F07F46B6F17F4F07D102F00C06082EEA
:1028B0000ED16448452107F07EFA6349634840F22F
:1028C000114207F004FA40F211415F4807F0F6F9AF
:1028D00016074CBF0C460125002CEED00026DA1E50
:1028E0008DF80760092A00F29980DFE802F0058C74
:1028F00090779797979797945548452107F05BFAFB
:102900008DF807604E4EF36A9A0705D55148452168
:1029100007F051FA002329E0F36A002B02DA4E484F
:102920004521F5E7F36A5B0064D54C48452107F083
:1029300042FA7369A26943F480737361BFF34F8FE6
:10294000BFF36F8F736932F8022C23F480737361C5
:10295000BFF34F8FBFF36F8F4DF602739A4224D1AE
:1029600022683F48452107F026FA23689DF8072092
:10297000CAB902AE04F1200720686168324603C27A
:102980000834BC421646F7D1099A002D52D0C2F342
:10299000080121B96FEA52226FEA4222099202A984
:1029A0001846FFF7BDFD0BB0F0BDB36ADBB23BB11B
:1029B0000DF1070201212046FFF71EFE0346D5E771
:1029C000B36A13F47F4F05D00DF107010120FFF723
:1029D000F7FEF3E7B36AB3F5803F02D3FFF79EFE3D
:1029E000ECE71949194840F2EA2207F070F940F281
:1029F000EA216AE71449154840F2ED2207F067F929
:102A000040F2ED2161E70DF107020021D3E70DF15E
:102A100007010020DBE71348452179E71249134AF3
:102A200010F4F87F08BF0A461148103B452107F013
:102A3000C2F96FE722F4FF7222F00102AEE700BF95
:102A400000ED00E0D0B40000DAB2000098AF000062
:102A500000B500001CB5000042B5000055B50000EF
:102A600079B500009AB50000A2B40000B7B4000028
:102A7000C3B50000044B5A6942F010025A615A690A
:102A800022F008025A61704700ED00E0EFF3088081
:102A9000EFF3098101B57246FFF7F6FE01BD00BFF5
:102AA000002080F31488BFF36F8F0F4880F30888ED
:102AB00003F0C8F800200D490860BFF34F8F00F005
:102AC0002BF8402080F3118809484FF40461401826
:102AD00080F30988EFF314800221084380F31488FF
:102AE000BFF36F8F00F00AF9C026002094ED00E0DC
:102AF000001900200749D1F890200023C2F30722D3
:102B00001846934200DB7047C1F89830C1F8A00026
:102B10000133F6E700ED00E008B572B6002383F359
:102B20001388FFF7E7FF144B4FF0FF32C3F8802004
:102B3000C3F88420C3F88820C3F88C20C3F8902001
:102B4000C3F89420C3F89820C3F89C20C3F88021D0
:102B5000C3F88421C3F88821C3F88C21C3F89021DD
:102B6000C3F89421C3F89821C3F89C2162B6BFF33F
:102B70004F8FBFF36F8F08BD00E100E0084B9B68EB
:102B800083420BD1EFF3058343B1064B5A6842F001
:102B900080525A605A6A22F400425A6205F074BEAA
:102BA000C013002000ED00E014498A684FF03000A7
:102BB0001044EFF3098C80E8F01F402080F3128866
:102BC000BFF36F8F0E4F4FF000664A698A603E6018
:102BD000106F0C4C2060506F0023536780F31188F6
:102BE00004B5104600F01EF9BDE8044002F13000C3
:102BF00090E8F01F8CF3098870470000C013002094
:102C000004ED00E0501100201EF0040F0CBFEFF3A4
:102C10000880EFF30980816911F8021C0229FFD0B6
:102C200001B5724607F0D8F801BD00BF40B20028D8
:102C300007DB044A4109012300F01F00834042F8EA
:102C40002130704700E100E040B200280CDB43096E
:102C5000064900F01F0020330122824041F8232062
:102C6000BFF34F8FBFF36F8F704700BF00E100E0ED
:102C7000054B420900F01F0053F82220012303FAFC
:102C800000F01040704700BF00E100E008B5D30736
:102C90000BD40231072909D90E490F486B2207F0DE
:102CA00016F80C486B2107F009F8002140B2002803
:102CB000ACBF00F16040094B4FEA4111B8BF00F0D2
:102CC0000F00C9B2AABF00F56140195480F8001383
:102CD00008BD00BFDBB5000098AF000014ED00E0B8
:102CE000044B054A23F07F039360BFF34F8FBFF37C
:102CF0006F8F70470000000000ED00E008B5FFF79F
:102D0000EFFF074AD2F8883023F47003C2F8883006
:102D100004F02AF905F0FEFF00F05AF804F068F913
:102D200000ED00E042F8203C009B42F81C3C0A49C0
:102D3000019B42F8183C029B42F8143C21F001012F
:102D40004FF0807342F8043C42F8081C0023203AFC
:102D500002654367704700BFF91D0000094A03463A
:102D6000906870B113F1160F006E05D0A0F140020B
:102D70009A4205D8834203D2814228BF002070477F
:102D800000207047C013002008B51546094A0A4BB9
:102D90009060026F1A600E4600F044F82C4686F3ED
:102DA00009880020054B9847204600210022002377
:102DB000034C2047C013002050110020F79D000055
:102DC000F91D0000014B10221A61704700ED00E070
:102DD000044800234021C2180133302B82F800132D
:102DE000F9D1704700E100E008B5EFF30583064A2A
:102DF000103B02EBC30152F8330049688847BDE835
:102E00000840FFF7E9BB00BFECA50000024B034AF6
:102E10000348012100F084B80000042000000020D5
:102E200014A90000026E054B403A1A60044A402182
:102E3000C3E901121846012100F08EB85411002098
:102E400000000B1508B5104AD2F89030C3F30723E1
:102E5000013B984207D9024645210C4806F0ABFFDA
:102E60006FF0150008BDC2F898000B6823F01F032F
:102E7000034343F01003C2F89C308B6843F0010316
:102E8000C2F8A030EEE700BF00ED00E016B600008B
:102E9000F0B50F4685B01C4605460026BE420CDA4A
:102EA000686808B38CB1431E184209D010483246F6
:102EB000452106F080FF6FF01502104605B0F0BD09
:102EC0001F28F3D929680B42F0D12B68019306F033
:102ED000B5FFAB6801A90343D0B20393FFF7B2FF7C
:102EE00010F1160FE7D0421C01360C35D6E700BFB3
:102EF00041B60000044B0522C3F89420BFF34F8F66
:102F0000BFF36F8F704700BF00ED00E0BFF35F8F2E
:102F1000024B0022C3F89420704700BF00ED00E090
:102F200010B50A4C01232278FFF7B2FF207016304B
:102F30000AD1074907484FF4BB7206F0C8FE04489F
:102F40004FF4BB7106F0BAFE10BD00BF341600206E
:102F500069B6000098AF000008B5114A0023127846
:102F6000FFF796FF10F1160F08D00E4A0021D2F895
:102F70009030C3F3072398420BDB08BD0A490B4886
:102F800040F2951206F0A3FE074840F2951106F0B4
:102F900095FEC2F89800C2F8A0100130E7E700BF24
:102FA0003416002000ED00E069B6000098AF000084
:102FB0002DE9F04F70487149D0F890300D68C3F397
:102FC00007239D4285B00AD96D496E4840F2AD1283
:102FD00006F07DFE40F2AD11694806F06FFEFFF786
:102FE00095FF49680022954201F10C0129D1664CF8
:102FF000664F25706846FFF793F9DFF89481DFF894
:10300000949106460025AE422ED123785A490020DD
:10301000D1F89020C2F307229342C0F2A380FFF7B9
:1030200069FFD1F89030C3F30723082B00F0A0808C
:103030005349544840F21F2206F049FE40F21F2136
:10304000CAE7C0F8982051F80C3C23F01F03134343
:1030500043F01003C0F89C3051F8043C43F00103E6
:10306000C0F8A0300132BEE7009A02EB0513290137
:10307000D3F80CA00AEA0700B0F5000F58D00AD820
:10308000B0F5001F34D0B0F5800F46D0B0F5801FEA
:1030900012D00135B7E7B0F1807F54D0B0F1007F96
:1030A000F7D19868D3F804A0525806F0C7FECDE9CE
:1030B00001A240F480200BE09868D3F804A0525895
:1030C00006F0BCFECDE901A240F0885040F430206B
:1030D0000390207801A9FFF7B5FE00283EDA2849C1
:1030E000284840F2D71206F0F2FD40F2D71173E7FC
:1030F0009868D3F804B0525806F0A0FE1AF0010FF9
:1031000040EA0800CDE901B20390E2D01C491D4815
:103110007B2206F0DCFD7B215EE79868D3F804A0F3
:10312000525806F08BFECDE901A240EA0900CFE734
:103130009868D3F804A0525806F080FECDE901A2A9
:1031400040F08270C4E79868D3F804A0525806F0A3
:1031500075FECDE901A240F08870B9E7237801330C
:10316000237096E7C1F89830C1F8A00001334FE70B
:10317000002005B0BDE8F08F00ED00E020A90000C0
:1031800069B6000098AF0000341600200000F0FF80
:10319000000008110000020608B5024B1B689847A2
:1031A000002008BD60110020034B044A186093788A
:1031B00043F0020393707047601100206802002002
:1031C00008B50649064821F00701C1F1005202F591
:1031D0008022FEF77BFD002008BD00BF472B0020AA
:1031E00064110020044A0123C2F840354FF08042A8
:1031F0000020C2F87835704700E0014020B1034B51
:10320000800143F001031847704700BFE0A80000A9
:10321000BFF34F8F0549064BCA6802F4E0621343BF
:10322000CB60BFF34F8F00BFFDE700BF00ED00E0B4
:103230000400FA0537B50C460A490B4A411A4023E7
:103240000093491105462346084806F00CFE011E6E
:1032500005DA2846234603B0BDE83040184703B0DE
:1032600030BD00BF84110020CF9E00006CA500007F
:10327000C9B2012908B508D9084909487F2206F0D2
:1032800026FD06487F2106F019FD03690C2201FB8B
:103290000233986C00F0070008BD00BFABB6000019
:1032A00098AF000070B5C9B2012903690AD918495D
:1032B000184840F2D11206F00AFD154840F2D1112B
:1032C00006F0FCFCEFF31185402484F31288BFF371
:1032D0006F8F0C2606FB0134A46C14F0C00408D0D8
:1032E000A24206D085F31188BFF36F8F4FF0FF30F5
:1032F00070BD71430B4401229A6485F31188BFF3BA
:103300006F8F43680B445B6898470020F0E700BF6D
:10331000ABB6000098AF000070B50D460649411AE3
:103320000446491105484022FFF7BCFF2B460146E1
:103330002046BDE870401847841100206CA50000AD
:10334000002270B5012104461046FFF79FFC0F488C
:1033500002F01AFE0E4B984215D102F025FE2669A6
:103360000C49304606F002FD00280BDB0125B56450
:103370002469084904F1200006F0F8FC002801DB6C
:103380006565002070BD6FF00400FBE74D34000060
:103390000000AD0B40A900001FB500220123CDE9BC
:1033A0000223094ACDF800D06B46CDF804D006F0D0
:1033B00087FD002805DB4FF480420023684604F0B7
:1033C0009FF905B05DF804FBE79E000010B5EFF330
:1033D0001184402383F31288BFF36F8F074A136869
:1033E00023F00201DB07116002D4012002F06CFE21
:1033F00084F31188BFF36F8F10BD00BFDC11002074
:1034000030B4104B0C2202FB003301460020D3E9FC
:1034100010521864EFF31180402484F31288BFF334
:103420006F8F9C6C04F0C00444F002049C6480F331
:103430001188BFF36F8F1DB12B46034830BC18476E
:1034400030BC7047841100206CA50000012808B52D
:1034500006D0032808D090B90E4B9B6C5B0717D1A0
:10346000BDE80840FFF7CCBF0B490C484FF43D7254
:1034700006F02DFC4FF43D71074806F01FFC06498D
:1034800006484FF4417206F022FC4FF44171F3E715
:1034900008BD00BF84110020ABB6000098AF00004B
:1034A00010B4EFF31182402383F31288BFF36F8FC0
:1034B0001748016841F002040460C80707D482F38A
:1034C0001188BFF36F8F012010BC02F091BD4FF047
:1034D0008041D1F80C04D1F80C14C907EFD5EFF3F3
:1034E000118083F31288BFF36F8F0A498B6C03F04E
:1034F000C00343F002038B6480F31188BFF36F8F26
:1035000082F31188BFF36F8F002010BCFFF778BFE4
:10351000DC11002084110020024BC0B203EB4010EC
:10352000704700BF841100202DE9F0414349BFF3EB
:103530005B8F0646012251E8003F41E80020002849
:10354000F9D1BFF35B8F9BB93D493E484B60CB60DF
:103550008A60FEF745FE00280ADA3B493B484FF4F3
:10356000297206F0B4FB4FF42971374806F0A6FB28
:1035700076B3731E012B58D8012E07D14FF080432C
:10358000D3F81C3403F00303012B21D006F0D6FE40
:103590000546F8B92E4B1B78E3B14FF08043022269
:1035A000C3F808230746DFF8AC804FF08044D4F816
:1035B0001824D4F81834D20315D503F00303012BD3
:1035C00001D0012E0FD155B387F31188BFF36F8F50
:1035D000BDE8F081EFF31187402383F31288BFF336
:1035E0006F8F0125DFE7ADB1384606F018FCD4F83F
:1035F0001835002BDBD1D4F80421002AD7D0C4F829
:103600000431D4F804310123C4F81835C8F88031E6
:10361000A360CCE70021212005F0AEF8E7E74FF0EA
:1036200080430222C3F80423D2E70749074840F247
:10363000B62206F04CFB40F2B62196E7801100203E
:1036400070110020A4110020ABB6000098AF00005C
:10365000DC18002000E100E008B5074806F0EEFDA8
:1036600038B10648FFF7A0FD0448FEF7A7FB00208D
:1036700008BD6FF01200FBE7CCA50000813600000A
:103680000A2838B5074D044604D1AB680D215B68A4
:1036900028469847AB6803485B68E1B298472046E4
:1036A00038BD00BFCCA5000010B5036941B91C4965
:1036B0001C483F2206F00BFB3F21194806F0FEFA9A
:1036C000486830B916491748402206F000FB4021EF
:1036D000F3E75868F8B1884219D19C6808685860C7
:1036E000A14200D19860002008602AB15A680A609F
:1036F0009A68596002B99960002010E0814206D1B1
:103700000868206098688142EDD19C60EBE7044630
:1037100000680028F2D1002AE8D16FF0150010BD32
:1037200011B7000098AF000008B5036859090246B8
:1037300013D0012906D103F01F034FF6FF71D940C2
:10374000C80712D40A490B4840F2CA3206F0BFFA41
:10375000074840F2CA3106F0B1FA4FF0FF31D940C4
:10376000C907EFD54FF0A04000E00348136008BD43
:103770004DB7000098AF000000030050F0B540685E
:10378000057B01F01F0444EA4514056987B0002D4C
:1037900077D0B2F5001F00F1100506D1214628466A
:1037A00006F046FD002007B0F0BD01AE0027B2F5DF
:1037B000800F0197776034D1B3F1007F14BF0523E8
:1037C00004238DF804300023CDE904630393836858
:1037D000CB40D9073AD4B2F1A07F37D168460094E4
:1037E000FFF7A2FF009B03F5E07350F82330DB07DF
:1037F0002CD46A462146284602F07AFF244B984290
:103800001AD0CDF808D003AA2146284602F032FE8D
:10381000204B984238D101222146284602F0E0FF91
:10382000C0E7B3F1C06F05D0B3F1007F14BF01232F
:103830000223C6E70323C4E76946284602F0C8FF0F
:10384000144B9842DDD06FF00B00ACE76A4621467E
:10385000284602F04DFF0F4B98420646D3D19DF803
:103860000010284602F0ACFFB042CCD00A490B4809
:1038700040F2E11206F02BFA074840F2E11106F09F
:103880001DFA6FF085008EE76FF015008BE700BF23
:103890000400AD0B0000AD0B80B7000098AF000036
:1038A0002DE9F043466840F20635337BD00687B0F9
:1038B00001F01F0702EA050547EA431754BFC2F3A8
:1038C00040130323B5F5837F14468DF8033044D0AD
:1038D0000FD8062D18D007D8B5B1022D3FD06FF004
:1038E000150007B0BDE8F083B5F5807FF7D101255D
:1038F0000AE040F20222954233D0B5F5407F32D043
:10390000B5F5007FEBD1022522032ED57268012385
:103910008B40C2F8083533697BBB03A80397FFF7D8
:1039200003FF039B00EB830084F48033C3F3004365
:10393000C4F34044D0F8002744EA43049DF8033020
:1039400022F4E16244EA830422F0070244EA0523F8
:103950001343C0F800370020C3E70725D4E7042548
:10396000D2E70525D0E70325CEE7630341BF012356
:1039700072688B40C2F80C35CDE710360DF10202AB
:103980003946304602F0B4FE14F4403F804616D16A
:103990003946304606F04AFC244B9845DBD19DF869
:1039A0000210304602F00CFF4045D4D02049214897
:1039B000DE2206F08CF91E48DE2106F07FF901AB0D
:1039C0004FF0000903AA39463046CDE90439CDE964
:1039D0000199CDF80C9002F04DFD144B98427FF404
:1039E0007EAF14F4003315D09DF803308DF80E30FF
:1039F00084F48034C4F300444B4603AA394630466D
:103A00008DF80C508DF80D4002F0F0FD074B9842F8
:103A1000C2D064E7CDE9043303AA0DF103033946AC
:103A20003046039302F026FDF0E700BF0000AD0B27
:103A300080B7000098AF0000420970B5034602D07D
:103A4000012A1AD070BD124E326951680029F9D08E
:103A500003F01F0301250C689D400029F2D08A68FD
:103A60002A400ED04B6853B90A490B48642206F02D
:103A70002EF90848642106F021F9084EE4E73046A3
:103A800098471CB1236821461C46E6E72346FAE71F
:103A9000ACA5000011B7000098AF00008CA5000095
:103AA00038B545682B69B3B11035284602F07EFE63
:103AB000044680B90146284602F044FE084B98426D
:103AC0000BD108492246284602F00CFE2246052169
:103AD0000620FFF7DBF8002038BD6FF00400FBE79D
:103AE0000000AD0B393A000008B5036859090246D9
:103AF00013D0012906D103F01F034FF6FF71D940FF
:103B0000C80712D40A490B4840F2CA3206F0DFF85F
:103B1000074840F2CA3106F0D1F84FF0FF31D940E2
:103B2000C907EFD54FF0A04000E00348136008BD7F
:103B30004DB7000098AF0000000300502DE9F04F92
:103B4000DFF85CB185B01546824600EB810840F293
:103B5000FF19D04503D1002005B0BDE8F08FDAF899
:103B600000305A04C3F3C321C3F3080400F1918069
:103B70004C4A1B0E575C4C4508BF4FF0FF34192BC5
:103B800000F28A80DFE803F00D141A1D20261D883C
:103B90008888883663888888888888888888667C4A
:103BA0007F82C5F80C45631C5ED10AF1040AD0E798
:103BB000C5F81445661CF8D000265FE0C5F8084536
:103BC000F1E7C5F81045F5E7601CC5F80845ECD0ED
:103BD000002604E0611CC5F80C45E6D0012603A8C8
:103BE0000394FFF781FF039B012101FA03F3C0F85F
:103BF0000C3508E0C5F80845002FDBD1631CD4D094
:103C0000002631460627DAF80030019303F400401D
:103C1000002818BF002103A8009118BF01260394B3
:103C2000FFF762FF039C019B009900EB8400C3F344
:103C3000412CD0F800473B0243EA8C030B4304EAD3
:103C40000B04234343EA4603C0F80037ADE7C5F849
:103C50000C45D1E7C5F86045621CDAF80030A4D005
:103C6000C3F30043002BB9D003A80394FFF73CFF34
:103C7000039B012606FA03F3C0F808353146C2E774
:103C8000C5F86445E8E7C5F86845E5E7C5F86C455B
:103C9000E2E76FF015005FE76FF085005CE700BFBB
:103CA000F0F8FCFFC8B700002DE9F0410446476872
:103CB0000D4606F043FB4FF0400888B9264B1B78B1
:103CC00073B16426606806F081F9F0B9012006F04E
:103CD00002FA013EF6D10021212004F04DFDF0E76B
:103CE000EFF31186314688F31288BFF36F8F606857
:103CF00006F06CF9A8B986F31188BFF36F8FEFE770
:103D000086F31188BFF36F8FE5E7EFF31186314635
:103D100088F31288BFF36F8F606806F057F90028A8
:103D2000EED0BB691D706368BA691B680020C3F8D8
:103D300044250122C3F84825C3F82001D3F82041C7
:103D4000C3F85801D3F858019A6081F31188BFF382
:103D50006F8FBDE8F08100BFDC180020F8B50022AD
:103D6000054601210220FEF791FF0220FEF75EFFCB
:103D70006C680121E06806F05AF96B681A682369DB
:103D8000C2F82435617D237D0B43A17D0B43C2F82E
:103D90006C356E68D6E9004313F0010349D02F69F2
:103DA00007F1080006F0A3F92F4B984206D02F48E0
:103DB000452106F000F86FF00400F8BD387A04F1F0
:103DC0000C0204F5907106F088F9387A012707FA99
:103DD00000F002F059F80823C4F80035B369C4F8BC
:103DE00044350023C4F84835A760D4F85831002B77
:103DF000FBD00026C4F800656B683146D86806F031
:103E000016F96D6831462C68E86806F010F9082349
:103E1000C4F800352A7A52B9EB69C4F83435012365
:103E2000C4F83835C4F81021D4F8102123600020DC
:103E3000C3E70822C4F80025B269C4F84425C4F8D1
:103E400048350123A360D4F82031002BFBD0002398
:103E5000C4F82031D4F820310123E3604FF480739B
:103E6000C4F80433C1E700BF0000AD0BD0B70000B9
:103E700070B40E49D1E90034D01AC31844F10004DB
:103E800022F07F46C1E90034A6F50013B3F5400FD8
:103E900009D2074B1B681A0A1B069C19054B42F1F5
:103EA0000005C3E9004570BC05F094B8D8090020AE
:103EB0000C120020E00900200D4B1868010A0006D2
:103EC000BFF35F8F0B4BD3F80435181841F1000195
:103ED000B3F5801F0AD2084BD3E90023904271EB5F
:103EE000030303D210F1807041F10001704700BF5D
:103EF0000C12002000100140E00900202DE9F743DA
:103F00002B4CD4F8043399070BD5D4F8043143B1C2
:103F1000284A0023C4F80431D4F80431136801336B
:103F20001360D4F80433DA0323D5BFF35B8F224B3D
:103F300053E8002F22F0010143E800100028F7D1D8
:103F4000BFF35B8FD30702D4D4F840318BB1002587
:103F5000C4F84051D4F84031FFF7AEFFEFF31082C0
:103F600072B6164BD3E90267B042B94104D282F36C
:103F7000108803B0BDE8F0834FF0FF384FF0FF39F1
:103F8000C3E90289D3E900101D604FF48033C4F8FF
:103F90004833C4F84051D4F8403182F310880029E6
:103FA000E7D0009032463B4628468847E1E700BF0D
:103FB000001001400C12002004120020C80900204B
:103FC0002DE9F84F4B4DBFF35B8F06460F4655E882
:103FD000008F28F0010345E80032002AF7D1BFF333
:103FE0005B8F454C4FF48039C4F80893BFF35F8F63
:103FF000BFF36F8FFFF760FFB04271EB070308F06C
:10400000010840D23D4B301A67EB0101984271F133
:1040100000014CD23A4BD3E902239F4208BF96429B
:104020003ED04FF0000CC4F84893C4F840C126F0CD
:104030007F40D4F84031DFF8CCA0834603216FF0F5
:10404000020E2BF07F43C4F84035C4F84493D4F8F3
:104050000425AEEB02035B4423F07F4353451FD995
:10406000D4F840315BB1D4F80425131A23F07F4310
:10407000B3F5000F14D9C4F840C1D4F8403101EBB6
:10408000020B0131DDE7204BBFF35B8F53E8001FCC
:1040900041F0010143E80012002AF7D1BFF35B8F22
:1040A000174B1A4A1A60C3E9026700225A60B8F136
:1040B000000F1CD0BFF35B8F55E8003F43F00103B6
:1040C00045E80032002AF7D1BFF35B8F4FF480330D
:1040D000C4F804330C4BBFF35B8F1B68BFF35B8FDB
:1040E000DB0742BF0A4B4FF40032C3F80021BDE8A2
:1040F000F88F00BF0812002000100140010080006E
:10410000C8090020FDFF7F0004120020713E00005E
:1041100000E100E070B5194C194BC4F80833C4F83D
:104120004833184B00254FF0FF304FF0FF31C4F8F3
:104130000855C3E902014FF48033C4F80433124B2D
:1041400002264FF40032C4F804630121C3F8802131
:1041500011202A46FEF79AFD1120FEF767FD012384
:104160000A4AA3600021236009481360FFF728FF73
:104170003046FFF7D9F9284670BD00BF0010014056
:1041800003000F00C809002000E100E00812002031
:10419000FFFF7F00431C10B50F4C05D08442A8BF21
:1041A0000446012CB8BF0124FFF786FE0B4AD2E972
:1041B0000031C01AB0F5000F074A0AD220449042DD
:1041C00028BF1046C018BDE8104041F10001FFF7BC
:1041D000F7BE1046F6E700BFFFFF7F00D8090020BA
:1041E00008B5FFF769FE024B1B68C01A08BD00BF87
:1041F000D809002010B5084C012363601120FEF798
:1042000023FD064BC4F80833C4F84833044B4FF47D
:104210000032C3F8802110BD0010014003000F00E0
:1042200000E100E02DE9F04112F0FC6FD0E9014718
:10423000066913460AD03649364840F2DF3205F0A7
:1042400046FD40F2DF31324805F038FD02F0300221
:10425000302A08D12E492F4840F2E23205F037FDCE
:1042600040F2E231EFE72C4A2C4D1A40AA4208D125
:104270002749284840F2E63205F029FD40F2E631B0
:10428000E1E703F00602042A08D12149214840F25F
:10429000E93205F01CFD40F2E931D4E713F4402285
:1042A00012D09D0308D41A491A484FF47B7205F0C6
:1042B0000EFD4FF47B71C6E7B2F5402F14D0184ABB
:1042C0009A4301D183F44023246801258D4025427F
:1042D00023F4801211D10E490E484FF47F7205F07D
:1042E000F6FC4FF47F71AEE709490A484FF47C723F
:1042F00005F0EDFC4FF47C71A5E73468DB074CBF9B
:104300002C43AC4334603B68BDE8F041184700BF24
:1043100012B8000098AF0000020003000200010084
:104320000100100010B5012303FA01F1436804698C
:104330001B6819420AD10C490C4840F28D6205F005
:10434000C6FC094840F28D6105F0B8FC23681942AB
:1043500003D022B183681B6903E0002AFAD0836886
:10436000DB68BDE81040184712B8000098AF0000A5
:104370002DE9F041114E07468846002527FA05F23F
:1043800012F0010210D128FA05F3DB070ED53179BE
:104390003068FFF7C7FF044640B10948452105F0E2
:1043A0000AFD2046BDE8F0810122F0E70135042D29
:1043B00006F10806E2D10024F3E700BFD8A9000007
:1043C00043B8000070B50D4C0026E28820682179C2
:1043D00042F40032FFF726FF054648B90136042EA5
:1043E00004F10804F1D1BDE870400F21FFF7C0BF10
:1043F0000348452105F0DFFC284670BDD8A9000020
:104400005EB80000034808B5452105F0D4FC002043
:10441000FEF7FEFE91B800000B4B0C4A1B7AC2F867
:104420001035042B0DD8DFE803F008030C08030057
:10443000074BA0221A6001207047054B4FF496727B
:10444000F8E70020704700BF08130020001000406C
:1044500018120020044A0023C2E908339362034A79
:10446000C2E9083393627047D4120020A8120020DA
:10447000054B1B68D3F80423920342BF0022C3F804
:104480004421D3F844317047C002002008B5084BDE
:104490001B6801221A61FBF75BFEFBF753FE01F07C
:1044A00003F80320FBF75AFEBDE80840FBF738BECF
:1044B000C002002038B500280E490F480F4D40F2C9
:1044C000044408BF4FF48064FBF730FE38B9FBF7B3
:1044D00021FE00F0CDFF2B68C3F8004238BD084B29
:1044E000DB7C002B2B680CBF81222822C3F84825D7
:1044F000F1E700BF78020020F8A90000C002002008
:1045000008130020EFF31181402383F31288BFF3D7
:104510006F8F074A936A013B9362536A0133082BFA
:1045200028BF0023536281F31188BFF36F8F704758
:10453000D41200202DE9F843224BDFF88C801A7842
:10454000012A81460F4630D198F80030C3F30502A6
:1045500003F03F03202B33D81C4B196A53F821304A
:104560001A701A4D1A492C6A55F8246030460134E5
:1045700010F8052B05F03EFF164B86F80190D3F896
:104580004835377103F07F03B37098F80130DB438F
:1045900003F00103F370AB6A082C28BF0024013339
:1045A0002C62AB620120BDE8F883084A116A52F818
:1045B0002120597809B91170D3E75B7C1370D0E7DB
:1045C0000020F0E7081300208F180020A812002018
:1045D00091180020001000401FB5174B93F90A00F6
:1045E0001B7A013BDBB2032B9CBF144AD25C144BF9
:1045F000DB7C4FF0000188BF0522009103F51663B4
:1046000003A9FBF7B7FD9DF80D00FBF7ADFD50B119
:104610000C490D4840F2813205F059FB094840F23F
:10462000813105F04BFB9DF80C20084BC3F80C259D
:1046300005B05DF804FB00BF081300207FB900003F
:10464000A8020020B3B8000098AF0000001000409E
:10465000837842781B0443EA022302781343C2782A
:1046600043EA0253027943EA8253427943EA0263FE
:10467000827943EA8263C27943EA4273094AC2F803
:104680001435837A417A1B0443EA0123017A0B43F0
:10469000C17A43EA0163017B43EA4163C2F81835FA
:1046A000704700BF001000401FB504460D220021D6
:1046B000684605F0ADFE0A4B00930A4B5B7CE0B206
:1046C000013B8DF808008DF809008DF80A30684626
:1046D00001238DF80B30FFF7BBFF04B010BD00BF06
:1046E00000010100A80200201FB50023CDF8093009
:1046F000CDF80130CDF8053003238DF802300623C4
:104700008DF800300C4B5B7C013B8DF80A30202388
:104710008DF80830094B1B7A012293428DF80B204B
:1047200007D18DF805206846FFF792FF05B05DF8C8
:1047300004FB042BF5D0F6E7A802002008130020A4
:10474000F8B5634B634F644D3C78644E01221A60A8
:10475000634B5A6A53F8221029600CB3012C42D0E3
:1047600001242B685F4D5A78C5F82C255B785E4A8A
:10477000012707FA03F3DBB2C5F83035D37C40F6E6
:10478000C41103F516638B426BD9584958484FF44E
:10479000E66205F09CFA55484FF4E66105F08EFAA2
:1047A000544B348008781B689847296833780A7915
:1047B000304662F3010300F8023B11F8052B05F0C7
:1047C00019FE484B40F21B12C3F800221022C3F816
:1047D0000423494BFA891A60484B494A1A60494BED
:1047E00002221A70BCE7CA780023338012B1BC7C65
:1047F00084F001040B7991F800C030785B0003F07D
:104800000603002A08BF43F00103727822F0070272
:1048100013436CF305003070737011F8052B3A48A0
:1048200005F0E8FD2F4B3549364A74B140F21B10B4
:10483000C3F800023048FC89046031480860022156
:1048400011701022C3F804238AE740F21310C3F852
:1048500000022E480860012111701022C3F80423C1
:104860007FE7A3F51663C5F8083502F11403BFF31B
:104870005B8F53E8001F21F0010143E80012002A7A
:10488000F7D1BFF35B8FFFF7A7FE214BC5F8046597
:104890000222C3F880213846FEF7C8F90020C5F887
:1048A0000401D5F80431C5F80801D5F80831C5F878
:1048B0001001D5F81031C5F80C012146D5F80C319E
:1048C00000F008FE2046FFF7F5FD124B9F61F8BD92
:1048D0001C1200200813002000130020B118002033
:1048E000D412002000100040A8020020D4B800001C
:1048F00098AF000010120020201200201412002097
:10490000854B0000D3180020B3180020E54A0000B2
:1049100000E100E000400140684620F007018D46BC
:1049200019B5144BD3F80423D2060BD5D3F81021B4
:1049300042B10022C3F81021D3F810310E4B1B688E
:1049400003B198470B4CD4F804331B070BD5D4F8AC
:104950000C3143B1084B1B6803B198470023C4F8DE
:104960000C31D4F80C31FDF737FEBDE8194085460F
:10497000704700BF0010004014120020684620F06D
:1049800007018D4631B5194B82B01B680193EFF3D7
:104990001181402383F31288BFF36F8F144B0022E1
:1049A0001D681A6081F31188BFF36F8F114C236863
:1049B000ABB1E90703D58DF8002068469847AA07F0
:1049C00005D501238DF800306846236898476B07AA
:1049D00005D502238DF80030684623689847FDF717
:1049E000FBFD02B0BDE83140854670471C12002037
:1049F00024120020041300200146C80708B506D57C
:104A0000314805F02FFB314B00BAC3F81C058A076B
:104A100006D52F4805F026FB2C4B00BAC3F820051D
:104A20004B070AD52B48294905F01CFBC1F8240582
:104A3000294805F017FBC1F828054FF08053D3F83B
:104A40003021082A3ED1D3F83431052B3AD8234AF5
:104A5000D35CBBB31C4B224A5B7C052B1B4BD3F8AE
:104A60001C15D3F8200518BF4FF07F42414011427A
:104A700028D1D3F82415D3F82825C1F30720CBB2C9
:104A8000834214D0C1F30740834210D0B3EB116FBF
:104A90000DD0D1B28B420AD0C2F307218B4206D08F
:104AA000C2F307418B4202D0B3EB126F0AD1074A1F
:104AB000D2F8743723F0807323F0010343F080733E
:104AC000C2F8743708BD00BFA802002000100040E3
:104AD000AC020020B0020020B402002083B9000024
:104AE0000000FFFF10B5FBF72DFB154B154C1B68A5
:104AF00001221A6100F0D8FCFBF712FB00210846E6
:104B000000F054FD104A1148136843F0010313608C
:104B1000A36A3BB90E4B00221A704FF48013C0F801
:104B2000003110BDFFF7EEFCA36A002BF2D04FF46A
:104B30008013C0F80031BDE81040FFF701BE00BF90
:104B4000C0020020D41200202412002000E100E066
:104B5000D318002008B5FBF7F5FA07490748FBF71B
:104B6000EBFA074B1A68D2F8003223F4806323F083
:104B70000403C2F8003208BD7802002010AA000029
:104B8000C0020020F8B501210020244C244D254E00
:104B900000F00CFD00F088FCFFF7DCFF40F213137F
:104BA000C4F800322B680127DF601F4B1A6800230E
:104BB0000D321946284602F06BF8F37CB189002BC0
:104BC0000CBF8122282228468A1A0023394602F087
:104BD0005FF82B6840F202220025C3F80022C3F8D8
:104BE0004051D3F84021C3F84451D3F8443100F088
:104BF0009BFD00F073FDC4F80C513078D4F80C31F3
:104C000010B90A4B1B689847094BC4F80435094B87
:104C1000094A1A60094B03221A70F8BD00100040BF
:104C2000C0020020081300201812002010120020DB
:104C30008F18002014120020A54C0000D31800206B
:104C400038B50A4C0A4D2368D3F844358133EB60FC
:104C500000F00EFC07492846FBF768FA20B92368E4
:104C600040F20442C3F8002238BD00BFC002002059
:104C7000900200207802002008B500F015FCFBF738
:104C800061FA0320FBF76AFA054B1A68D2F8003282
:104C900023F4806323F00403C2F8003208BD00BF90
:104CA000C002002070B500F071FDFBF751FAFBF770
:104CB00037FA4E4B4E4AD3F80C11002943D0D3F8A3
:104CC0000034D9073FD54B4C4B4D23684B4E43F036
:104CD000010323601268EB899B1A494A0133136070
:104CE000B36A0BB1FFF70EFC2B78B3B1454B1A78C2
:104CF000920612D05978444B3C4A9B6AD2F82C0554
:104D0000072BC1F3410108D800F00700FFF712FCA0
:104D100018B1236843F004032360B26A3B4B12B11D
:104D20002A7C012A07D13A4A002111704FF48012DF
:104D3000C3F8002170BD4FF48012C3F80021BDE814
:104D40007040FFF7FDBC1368314E324D591E1160A3
:104D50007BB92A6801211161274AD2890A4428496E
:104D60000A6024490A6842F002020A603370274B45
:104D7000DCE71E4C0023C4F80031D4F8003140F2C7
:104D80001B13C4F80032244B1A68244B10781B689C
:104D90009847234BC4F80435224B234A1A60022358
:104DA0003370FFF719FCFFF74BFF00F05DFC2B6839
:104DB000D3F84421BAB1D4F85035DBB2092BB9D0BD
:104DC000D4F80041002CB5D1FFF756FF00F086FC67
:104DD0000121204600F07EFB0120FFF76BFB134B07
:104DE00001229A61A6E701221A60A3E700100040A1
:104DF000201200202412002008130020D4120020CA
:104E00001C1200208F180020A812002000E100E0F2
:104E1000D3180020C0020020001300201012002030
:104E2000B118002014120020854B00000040014002
:104E300038B5214B214C002501201D60FDF704FFF2
:104E40001420FDF701FF0A20FDF7FEFED4F8003222
:104E5000C4F800524FF0FF33C4F80833C4F81051BF
:104E6000D4F8103101232361D4F81031002BFBD08A
:104E70000025C4F81051D4F8103100F0FFFCFFF702
:104E800005FB0F4801F0D4FE00F022FDD4F85036A7
:104E90000C4823F00103C4F850360B4B1D700B4B2C
:104EA00029461D70FFF7D6FA202205F0B1FA084B0B
:104EB0001D605D6038BD00BF14120020001000406E
:104EC000C0020020E4150020D3180020D4180020D0
:104ED00087180020F0B5044685B0002800F0D28085
:104EE0006A4D2B780BB1FFF7A3FF694B62681A601C
:104EF000684A234604F11007164618685968144694
:104F000003C40833BB422246F7D118682060624BC5
:104F100062480024202221461C6005F079FA604B8B
:104F200060491C605C60FFF777FA33787BB1012B36
:104F300001D15D4B0B60727A5C4B012A63D0022A6F
:104F400007D07AB9C3F83C25C3F8342508E0584B9C
:104F5000F0E74FF6FF70C3F83C05C3F83425554A17
:104F6000C3F838250B68707C9847504B524953481A
:104F70004FF0E732C3F81C254FF04332C3F8202529
:104F80004F4AC3F824254F4AC3F82825FFF762FA91
:104F90000A4600230133082B40F8042B02F12502B6
:104FA000F8D1494A494800230133082B40F8042B23
:104FB00002F12502F8D10022454B14460132082A9D
:104FC00019601C719C6001F1250103F10C03F5D1FE
:104FD000202200213F4805F01BFA3F4B3F4A404842
:104FE000019301A9CDE9024401F0B6FD3D4B984281
:104FF000024610D100F0F0FB0446C8B13A48452102
:1050000004F0D9FE11E0FF20C3F83C05C3F83425B5
:1050100040F20712A4E73548452104F0CCFE34489D
:10502000452104F0C8FE6FF00D04204605B0F0BD28
:1050300000F020FC2F4B1D495860D1F85026F37C1E
:1050400022F001021343C1F85036012108462246DE
:10505000FDF71CFE224602211420FDF717FE224612
:1050600002210A20FDF712FE0120FDF7DFFD1420CA
:10507000FDF7DCFD0A20FDF7D9FD1F4B1C70012355
:105080002B70D2E76FF01504CFE700BFD4180020D3
:10509000041300200813002024120020E41500202F
:1050A0008718002010120020E94600000010004080
:1050B000A9460000211001005F170020D412002033
:1050C000E743C323A363E31337160020A81200208D
:1050D000481200202812002040420F0071440000B6
:1050E000C00200200000AD0B61B9000008B900004B
:1050F00036B9000078020020D31800202DE9F041D5
:10510000544B1B78002B00F09980002800F09F8002
:1051100003785A1E1F2A00F294804F490A781AB960
:105120004A7C9A42C0F08D804C4B9A6A072A00F262
:105130008B804278072A00F28A80EFF311854022A3
:1051400082F31288BFF36F8F4A7822BB1C6A53F830
:105150002440024600F1240652F8047B44F8047B04
:10516000B242F9D11278227046783D4CA25D0132EC
:1051700002F00302A2551A6A407853F82220205CFC
:1051800010711A6A0132082A28BF00221A629A6A2C
:1051900001329A623AE0334C0022A44694F804E0CB
:1051A000BEF1000F2DD10C2757430CEB070601244D
:1051B0005CF807703471C6F808E0044600F1240E6C
:1051C00054F8048B47F8048B7445F9D124783C706B
:1051D00090F801E0224F17F80E40013404F0030468
:1051E00007F80E400C24624344785CF802203C5DD2
:1051F000147144781C4850F8242092B940F8246077
:10520000C5E70132082A04F10C04C7D185F31188DF
:10521000BFF36F8F4B780A7C134308D00020BDE8A2
:10522000F08110469268002AFBD18660AFE70F4BF1
:105230001B78002BF2D1FFF783FAEFE76FF00C0039
:10524000EDE76FF07900EAE76FF00B00E7E76FF04A
:105250001500E4E7D418002008130020D412002021
:10526000871800204812002028120020D3180020A0
:1052700038B5254B1B78002B3CD000283DD0234C63
:10528000A36A002B3CD0EFF31185402383F31288EF
:10529000BFF36F8F636A54F823301A780270636A21
:1052A00054F823305B784370636A54F8233093F9E1
:1052B00002308370636A54F823301B790371636A88
:1052C00054F82330DB78C370636A54F82310053038
:1052D000053105F08FF8636A0133082B28BF0023DE
:1052E0006362A36A013BA36285F31188BFF36F8FEA
:1052F000002038BD6FF00C00FBE76FF01500F8E7F9
:105300006FF03C00F5E700BFD4180020A812002081
:1053100038B5124B1B78F3B1EFF31185402383F3BB
:105320001288BFF36F8F0E4A0023C2E908339362DD
:105330000C4A0824013C1371936002F10C02F9D16C
:1053400020222146084805F063F885F31188BFF351
:105350006F8F204638BD6FF00C00FBE7D41800209B
:10536000D4120020481200202812002010B50A4B49
:105370001B7803F0FF0443B950B1084B02681A6070
:105380000120FFF739FB204610BD6FF00F00FBE74F
:105390006FF01500F8E700BFD3180020A802002026
:1053A00010B50A4B1B7803F0FF0443B950B1084B0A
:1053B00002685A600220FFF71FFB204610BD6FF005
:1053C0000F00FBE76FF01500F8E700BFD3180020CF
:1053D000A802002038B5104B1B780C4603F0FF05DF
:1053E0009BB9A8B1082913D80A4601460B4805F015
:1053F00001F80B4AFF231474C4F10804234104206C
:105400009374FFF7F9FA284638BD6FF00F00FBE7F9
:105410006FF01500F8E700BFD3180020B00200209D
:10542000A80200206428034607D8074A127802F031
:10543000FF002AB9054AD37470476FF01500704712
:105440006FF00F00704700BFD3180020A8020020A3
:10545000054A1278034602F0FF0012B9034A93721C
:1054600070476FF00F007047D3180020081300201A
:10547000094B0A491A78D30003F1804303F5F83346
:10548000C3F810150649C3F8141501239340054AC3
:10549000C2F80435704700BFD718002018410140FA
:1054A00000A0004000F00140084B09491B78012290
:1054B0009A40DB0003F1804303F5F833C1F8082577
:1054C0000022C3F81025C3F814257047D718002010
:1054D00000F00140F0B52B4B2B4C1B782B4FDA0022
:1054E00014442B4A0025C2F81851D2F81821294A31
:1054F00015788000EA00C0B202F1804202F5F8326D
:1055000000F1804000F58050C2F81075C2F8140513
:10551000214A05F5117042F82040204A20481678AB
:10552000F20002F1804202F5F8320124C2F81005BF
:1055300000F5973000F58470C2F8140504FA06F6F9
:1055400004FA05F0304369B1164A174E1178CA00C3
:1055500002F1804202F5F8328C40C2F81075204307
:10556000C2F814659B0003F1804303F5F833012270
:10557000D3F80018AA400A43C3F80028064BC3F822
:105580000405F0BDD518002004F001401841014089
:1055900000400140D818002000F00140D61800203B
:1055A00010110040D718002000A00040F0B5294B92
:1055B000294E1878294B1A78012404FA02F304FAC8
:1055C00000F51D4300F51177C3004FEAC20C19BB6B
:1055D00003F1804303F5F833C6F80855C3F81015F6
:1055E000C3F8141546F827100CF1804303F5F8337F
:1055F000C3F81015C3F81415194B1B789B0003F161
:10560000804303F5F8330121D3F80028814022EAD2
:105610000102C3F80028F0BD124A127803F180435A
:1056200003F5F833944000212C43C6F80845C3F82D
:105630001015C3F814150CF1804303F5F83346F840
:105640002710C3F81015C3F81415D30003F18043D5
:10565000CCE700BFD818002000F00140D618002089
:10566000D5180020D7180020154B164916480022DF
:10567000C3F81821D3F81831144B1B78DA0002F163
:10568000804202F5F832C2F8101501F5973101F5A4
:105690008471C2F814150E4A1178CA0002F18042D2
:1056A00002F5F832C2F810050A48C2F814050122C2
:1056B00002FA03F38A401343074AC2F804357047DD
:1056C000004001401011004044A10040D6180020C5
:1056D000D91800200010004000F001400F4B1A784C
:1056E0000F4B1B78012101FA02F09940D200DB0038
:1056F000014302F180420B4803F1804302F5F83286
:1057000003F5F833C0F808150021C2F81015C2F8E7
:105710001415C3F81015C3F814157047D6180020D7
:10572000D918002000F00140134B14491B7814488D
:10573000DA0002F1804202F5F832C2F8101501F5E4
:105740000F410C31C2F814150E4A1178CA0002F14B
:10575000804202F5F832C2F81005A0F51140303849
:10576000C2F81405012202FA03F38A401343064AE1
:10577000C2F80435704700BFDB1800200411004058
:1057800040A10040DA18002000F001400F4B1A78C9
:105790000F4B1B78012101FA02F09940D200DB0087
:1057A000014302F180420B4803F1804302F5F832D5
:1057B00003F5F833C0F808150021C2F81015C2F837
:1057C0001415C3F81015C3F814157047DB18002022
:1057D000DA18002000F0014038B51C481C4D01F0DB
:1057E0004BF9A84204462AD11A4801F045F9A842CB
:1057F000044624D1184801F03FF9A84204461ED1BE
:10580000164801F039F9A842044618D1144801F0AD
:1058100033F9A842044612D1124801F02DF9A842EA
:1058200004460CD1104801F041F9A04202460AD0CA
:105830000E48452104F0BFFA6FF0120038BD0C4845
:1058400022464521F6E70020F8E700BFD8180020DF
:105850000000AD0BD6180020D7180020DB18002060
:10586000DA180020D9180020D51800208DB90000C2
:10587000B4B9000000487047101100400E4B0F49AA
:105880001B780978012202FA01F102FA03F30B43B3
:105890000B49097802FA01F10B430A49097802FA27
:1058A00001F10B43084909788A401343074A43F042
:1058B0000103C2F808357047D8180020DA18002014
:1058C000D6180020D7180020DB18002000F0014077
:1058D00038B51E4B187801F0D5F81D4B9842054697
:1058E0000AD01C491C4840F2351204F0F0F919485E
:1058F00040F2351104F0E2F9184B187801F0C2F8C3
:10590000A8420446EDD1164B187801F0BBF8A0422E
:105910000546E6D1134B187801F0B4F8A8420446C6
:10592000DFD1114B187801F0ADF8A0420546D8D16F
:105930000E4B187801F0A6F8A8420446D1D10C4BC2
:10594000187801F0B9F8A042CBD138BDD8180020A2
:105950000000AD0BDDB9000098AF0000D6180020A4
:10596000D7180020DB180020DA180020D9180020F2
:10597000D518002070B5084E04464518AC4201D138
:10598000002070BD204601F077F8B04204F1010418
:10599000F4D06FF00B00F4E70000AD0B08B543093D
:1059A0000B7163B1012B14D00E490F4840F2CA327B
:1059B00004F08DF90B4840F2CA3104F07FF94FF042
:1059C000FF33C340DA07EFD54FF0A0430B604871B7
:1059D00008BD00F01F004FF6FF73C340DB07E3D59F
:1059E000024BF3E74DB7000098AF000000030050F2
:1059F00070B501460E484268856812680469012343
:105A00008B4013420AD10B490B484FF47F7204F0CC
:105A10005EF908484FF47F7104F050F9226822EAD9
:105A2000030222602B684FF4C022BDE87040184783
:105A3000ACA5000012B8000098AF00002DE9F041BD
:105A40000120A6B0FAF7A2FBDFF87881CDF8088034
:105A5000002401A902A88DF80C4000F0B9FE5A4BB1
:105A60009842064604D06FF00B0026B0BDE8F081E6
:105A70000DF1050104A8CDF810808DF8144000F058
:105A8000A7FEB0420546EED10DF1060106A8CDF8FD
:105A900018808DF81C4000F09BFEA8420746E2D11A
:105AA0005822214610A804F0B3FC1E230822CDE999
:105AB0000A230C9328230D930A238DF83830434B87
:105AC0009DF805201B88ADF839300D238DF83B304B
:105AD00016238DF841309DF804308DF8463013239D
