:020000022000DC
:10700000803C0020B19E0200DF3D03009D9E0200F7
:107010009D9E02009D9E02009D9E020000000000B9
:1070200000000000000000000000000019A00200A5
:107030009D9E020000000000B99F02009D9E02007C
:10704000F9A1020065DE0200F9A10200F9A1020027
:10705000F9A10200F9A10200F9A10200F9A10200C0
:10706000F9A10200F9A1020085040300F9A10200C0
:10707000F9A10200F9A10200F9A10200F9A10200A0
:10708000F9A10200F9A10200F9A10200F9A1020090
:10709000C9DE0200F9A10200F9A10200F9A1020073
:1070A000F9A10200F9A10200F9A10200F9A1020070
:1070B000F9A10200F9A10200F9A10200F9A1020060
:1070C000F9A10200F9A10200F9A10200F9A1020050
:1070D000F9A10200F9A10200F9A10200F9A1020040
:1070E000F9A10200F9A10200F9A10200F9A1020030
:1070F000F9A10200F9A10200F9A10200F9A1020020
:10710000014B1B685B68184700000020014B1B689F
:107110009B68184700000020014B1B681B6918473B
:1071200000000020014B1B685B691847000000202D
:10713000014B1B689B69184700000020014B1B682E
:10714000DB69184700000020014B1B681B6A1847C9
:1071500000000020014B1B689B6A184700000020BC
:1071600030B4044C9DF8085024680295E468A446A5
:1071700030BC60470000002030B50346114890F94C
:107180001C209A4219DD90F924209A4217DA9A1AA3
:10719000846AA05C0C4A15569D420DD00E3200291F
:1071A00018BF01309442C0B206D129B1013BDBB215
:1071B000012B01D80130C0B230BD0D20FCE700200A
:1071C000FAE700BF00040020044F030008B5054B98
:1071D00093F91C30984203DAFFF7CEFF024B1B569F
:1071E000184608BD00040020044F030010B51C4CD5
:1071F00094F82C3073B9012384F82C3000F09EF8F9
:1072000048B1184BA362D823236284F824300823A2
:10721000A361237710BD00F0A7F80028F1D100F09A
:10722000ADF80028EDD100F06BF838B10E4BA36239
:10723000D823236284F824300423E9E700F06AF8B5
:107240000028F3D100F070F80028EFD100F080F8AA
:107250000028EBD140F2BF11742000F019F800BFF4
:10726000000400203F4F0300124F0300BFF34F8F75
:107270000549064BCA6802F4E0621343CB60BFF3D2
:107280004F8F00BFFDE700BF00ED00E00400FA05EE
:107290001FB572B6134B5D688DB9FFF7E7FFB2FB00
:1072A000F6F2DCB20133002AF9D104F110036B4489
:1072B00003F80C2C0A2234B901A8A847EDE70246CE
:1072C00000230A26EDE7631E04AEDCB256FA83F310
:1072D000B0FBF2F602FB1600303003F80C0C30461F
:1072E000E9E700BFA00800204FF08052034BD2F81E
:1072F00030111960D2F834215A607047DC08002040
:10730000034B1868A0F10F0358425841704700BF63
:10731000DC080020034B1868A0F10A0358425841CA
:10732000704700BFDC080020034B1868A0F10E0373
:1073300058425841704700BFDC080020034B1868D2
:10734000A0F1100358425841704700BFDC080020EC
:10735000044B1868062803D0431C58425841704714
:1073600001207047DC080020034B1868A0F10D03D2
:1073700058425841704700BFDC080020034B186892
:10738000A0F1080358425841704700BFDC080020B4
:1073900053B94AB9002908BF00281CBF4FF0FF317C
:1073A0004FF0FF3000F00CB8ADF1080C6DE904CEE1
:1073B00000F05FF8DDF804E0DDE9022304B0704777
:1073C000704700BF08B5FFF78FFFBDE80840FFF723
:1073D0000DBF801A00F3070038B540B20D4659B210
:1073E0001446FFF7F3FE0023287020446B7040B270
:1073F00038BD0023036070477047002070474FF08E
:10740000FF3070474FF0FF30704770474FF0FF304C
:1074100070470020704700207047002303707047BA
:107420009DF800300022FFF7D4BF002070474FF0D6
:10743000FF3070474FF0FF3070474FF0FF3070471C
:10744000704700280CBF6FF0150000207047002027
:10745000704707230370002070470020704700200A
:107460007047034613F8012B002AFBD1181A013884
:1074700070472DE9F04786468C460846089E15461B
:1074800074461946002B40F0C2808542B2FA82F25F
:1074900045D94AB1C2F1200300FA02FC2EFA03F3E7
:1074A000954043EA0C0C94404FEA154EA8B2BCFB41
:1074B000FEF8230C0EFB18CC08FB00F943EA0C4342
:1074C000994528D9EB1808F1FF3704D2994502D91C
:1074D000A8F102072B44A3EB0903A4B2B3FBFEFC03
:1074E0000EFB1C330CFB00F044EA0344A04214D909
:1074F0002C190CF1FF3304D2A04202D9ACF10203E3
:107500002C44241A43EA07401EB1D44000233460BF
:107510007360BDE8F0874746DDE76346F1E792BB5D
:10752000431B01214FEA154EAFB2B3FBFEFC200C0A
:107530000EFB1C330CFB07F840EA0343984562D965
:10754000EB180CF1FF3004D2984502D9ACF10200DF
:107550002B44A3EB0803A4B2B3FBFEFC0EFB1C33CD
:107560000CFB07F744EA0344A7424ED92C190CF14F
:10757000FF3304D2A74202D9ACF102032C44E41B2E
:1075800043EA0040C0E7C2F1200320FA03F195402E
:1075900090402EFA03F303434FEA154EAFB2B1FB0E
:1075A000FEFC0EFB1C10190C0CFB07F841EA004115
:1075B000884504FA02F422D969180CF1FF3004D28C
:1075C000884502D9ACF102002944A1EB08019BB225
:1075D000B1FBFEFC0EFB1C110CFB07F743EA014359
:1075E0009F420ED9EB180CF1FF3104D29F4202D911
:1075F000ACF102012B44DB1B41EA004192E76046FB
:10760000E3E76146F7E76046A3E76346B7E78342EF
:1076100006D916B9002108467BE7C6E900E0F9E77C
:10762000B3FA83F78FB9834201D3724508D8BEEB12
:10763000020460EB030301209C461EB9002168E7A9
:107640003846FAE7C6E9004CF8E7C7F1200CBB4022
:1076500022FA0CF41C432EFA0CF120FA0CF3B84079
:1076600001434FEA14490EFA07F5B3FBF9F81FFA84
:1076700084FE09FB18300B0C08FB0EFA43EA0043AA
:107680009A4502FA07F240D9E31808F1FF3004D214
:107690009A4502D9A8F102002344A3EB0A0389B258
:1076A000B3FBF9F809FB183308FB0EFE41EA03416E
:1076B0008E452CD9611808F1FF3304D28E4502D9CA
:1076C000A8F10203214443EA0040A0FB0298A1EB89
:1076D0000E014145CE46434602D306D14D4504D264
:1076E000B9EB020E68EB04030138002EA6D0B5EB0F
:1076F0000E0261EB030101FA0CFC22FA07F34CEADB
:107700000303F940C6E9003198E74046C5E7434620
:10771000D9E7000090F9003023B1012B04D10448CF
:107720000CF069B90348FBE7002303700248F7E750
:1077300098520300AE520300C452030007B508215B
:1077400068460CF057FC07280CDD68460CF035F84D
:10775000034601A80CF031F85840044B186003B000
:107760005DF804FB4FF0FF30F7E700BFC00C0020CE
:1077700010F11E0F02461BDA10F1280F1ADA10F171
:10778000320F19DA10F13C0F18DA10F1410F17DA45
:1077900010F1460F16DA10F14B0F15DA10F1500FF9
:1077A00014DA0B4B0B4812F15A0FA8BF184670475A
:1077B00009487047094870470948704709487047A9
:1077C0000948704709487047094870470948704799
:1077D0002353030011530300EB520300F55203003F
:1077E000FA520300FF520300045303000C5303003A
:1077F0001E530300195303002DE9FF410378012BA9
:1078000004D0022B08D004B0BDE8F081304804B0A9
:10781000BDE8F0410CF0EFB82E4D284607F0EEF829
:10782000002853D12C4BAC7995F9077005F108006D
:107830000BF0C3FFD3F848652B7B013BDBB2212B58
:1078400096BF264ADFF8988052F823802B7876423C
:10785000082B014676B204D96B7BDB0701D52148A2
:10786000D5E73046FFF784FF2346CDE90160424665
:107870001D4800970CF0BFF804F00703591E0329B8
:1078800004F0060217D8B2FA82F252095200002020
:10789000033B032B84F00403C3F3800394BF002154
:1078A0000121DB0043EA81031343184304B0BDE820
:1078B000F0410CF040BE32B1052B94BF00220122F2
:1078C00052000120E4E701200222E1E707489EE799
:1078D000485303002423002000100040B84F030049
:1078E0002C5303001456030062530300A3530300F8
:1078F0001FB5002004F0B4FF38B911480CF07BF834
:107900006FF00504204604B010BD002301930393DB
:1079100069460123029300F0B7FB041E04DA09480C
:1079200021460CF068F8EDE7029B9B07FCD1039C15
:1079300014B105482146F4E704480CF05CF8E1E78F
:10794000C2530300E3530300FD5303001D5403001F
:1079500030B54FF0E6328BB04FF0C333CDE90123A1
:107960001B4A1C4D1068516803AB03C31C460FCD66
:107970000FC42B682360184B184A1B788DF81C30F5
:1079800005A801238DF8153006928DF8263006F0F3
:1079900067FE0446C0B901A807F0FCF8044698B990
:1079A00002A807F011F9044670B9082103A807F0EE
:1079B00025F9044640B94F2007F048F9044618B1AC
:1079C000074845210CF00BF920460BB030BD00BF35
:1079D0004A540300F04E030049230020F9770200C7
:1079E0002F54030013B5314C314A32480823237019
:1079F00000231370304A13700BF0FDFF2F480BF07B
:107A0000FAFF2F4B2F493048009303222F4B0BF0E6
:107A1000F2FF2F492F480BF0EEFFFFF78FFE2E4BA2
:107A20002E4819680BF0E7FF2D480BF0E4FF2D4BB3
:107A300093F9003013B92C480BF0DDFF1E48FFF717
:107A400069FEFFF755FF30B905F094FE014628B1F5
:107A500026480BF0D0FF002002B010BDFFF778FFE2
:107A6000014608B12248F4E794F9000007F004F950
:107A700094F9001022781F480BF0BDFF1E480BF050
:107A8000BAFF1E4806F000FF014608B11C48E0E7B7
:107A90001C480BF0B0FF07F001F8014608B11A4886
:107AA000D7E71A480BF0A7FFD5E700BF4B2300200C
:107AB0004A23002053540300492300207454030038
:107AC000CA540300A4540300A854030098540300AC
:107AD000D3540300DC540300C00C0020E75403001F
:107AE000F65403004C2300200D55030027550300D6
:107AF0004B5503006E5503009155030058020020BA
:107B0000AA550300C1550300E3550300FC550300CB
:107B100038B551B302680B1F9B1AD90823F007032D
:107B200013445C88E00708D410491148AF220BF0D9
:107B300078FFAF210D480BF06BFF10460BF03FFEB6
:107B4000084432F83050401B814206D007490848AB
:107B5000B7220BF066FFB721ECE724F001045C804C
:107B6000BDE8384010460BF0E7BE38BDA357030010
:107B7000C6570300B2F5802F2DE9F0410AD33449EE
:107B8000344840F215220BF04CFF40F215213048EA
:107B90000BF03EFF042A08D82D492E484FF40772F7
:107BA0000BF03FFF4FF40771F1E7043ACD1D8E183B
:107BB00025F0070526F00706761B172E4FEAD60795
:107BC00008D82349234840F225220BF02AFF40F22F
:107BD0002521DCE7B7FA87F4C4F12002C4F12404BC
:107BE000A4000734E408631C4FF00008BB420560A2
:107BF000AF60C5F80C8008D91549164840F23A2202
:107C00000BF00FFF40F23A21C1E74146920005F127
:107C100010000CF0C1FE630043F001036B8005EB24
:107C2000C4023B1B5900A5F800805180AA1925F811
:107C30003440A2F80280AB5305EBC70321465A88B3
:107C400042F001025A802846BDE8F0410BF0BCBD6D
:107C5000A3570300C6570300014B1B68184700BF1A
:107C6000F8000020014B1860704700BFF8000020AA
:107C700030B585B004460D461022002168460CF050
:107C80008BFE02238DF802302A46044B01932146D5
:107C900068460BF035FB05B030BD00BF597C0200D3
:107CA00080B505460E46174698460AF0D7FB0346B0
:107CB0000CF0DEFEDFF81890044649F8003042462A
:107CC00030463946A84754F8090002F05FF900BF72
:107CD0000800000008B50446EFF31183402383F346
:107CE0001288BFF36F8F05F0DDFC204602F0AEFC7A
:107CF00002480BF080FE0CF084F8FCE7EF5703001D
:107D00002DE9F84F04460846A38B1907164612D4EE
:107D1000022803F0070162D120460BF0AAFE88B1C9
:107D20000138042800F22581DFE810F05900230112
:107D30007E00C800F50001280CBF43F0100143F09D
:107D40002001A18304F114000AF0B6FD002800F020
:107D5000AB8086F31188BFF36F8FBDE8F88F03F017
:107D60000702501F01281ED80020062A2768C4E9F0
:107D7000000014D13A4603E0E08B0130E083126842
:107D8000002AF9D123F0070343F00202A283204620
:107D90000BF06FFE90B342F02002A2832EE023F09E
:107DA00007039AB2F2E7042A33D123F007039AB209
:107DB000A28320460BF05DFE10B142F02002A283A8
:107DC000A38B03F00709894540F0DC80A18BCA062C
:107DD00040F1218121F01003A38301F00701D4F8C1
:107DE0001880A38BB8F1000FB9DA0022276823F0BE
:107DF0000703C4E9002243F00103A383A38B03F02C
:107E00000709894540F0BF80002FDFD00025AA4632
:107E100040E08549854840F21B120BF002FE40F21B
:107E20001B1181480BF0F4FD41B17F497F484FF4AD
:107E3000AB720BF0F6FD4FF4AB71F2E7236843B978
:107E400079497A4840F257120BF0EBFD40F2571196
:107E5000E7E723691D6845B9734974484FF4AD726B
:107E60000BF0DFFD4FF4AD71DBE7A38B23F00703CD
:107E700043F006039BB2A3830F4688464FF00609E2
:107E8000A268002A40F08180002F40F08180002D00
:107E90009CD0BA4643F0080304F1140BA383584660
:107EA0000AF00AFD002875D16149604840F231129C
:107EB0000BF0B7FD40F231115D48B3E7022908D05D
:107EC00059495A4840F25D120BF0ABFD40F25D118A
:107ED000A7E7E78B47B1544954484FF4AF720BF012
:107EE000A0FD4FF4AF719CE723695D6845B94E4929
:107EF0004E4840F261120BF094FD40F2611190E7A0
:107F0000A38B23F0070343F004039BB2A383B8467B
:107F10004FF00409B4E7012908D0434943484FF41E
:107F2000B2720BF07EFD4FF4B2717AE7236843B969
:107F30003D493E4840F265120BF073FD40F2651179
:107F40006FE723699D6845B9374938484FF4B472E3
:107F50000BF067FD4FF4B47163E7A38B23F00703C5
:107F600043F005039BB20027A383B8464FF00509F1
:107F700086E72D492D4840F26B120BF052FD40F27E
:107F80006B114EE7002700257AE74FF0010A81E7E1
:107F900092467FE786F31188BFF36F8FBAF1000F27
:107FA00016D147BB15B123492046A847EFF31186E8
:107FB000402383F31288BFF36F8F58460AF06EFC9C
:107FC00008BB1B49194888220BF02BFD882173E759
:107FD000A1680029E5D00E680029E2D0D1F804A0FC
:107FE00043464A462046D0471EB1336831461E46B6
:107FF000F2E73346FAE7394643464A4620463F68A9
:108000000BF063FDCDE758460AF06CFCA38B23F020
:108010000803A383DAE68B067FF594AE21F02003F4
:10802000A38301F0070177E618580300C657030041
:108030003D58030039800200F8B504460D4600F1B2
:108040001406EFF31187402383F31288BFF36F8F79
:1080500030460AF023FC40B909490A4888220BF04F
:10806000E0FC074888210BF0D3FC30460AF03AFCCC
:10807000A5613A4620460121BDE8F840FFF740BE21
:108080003D580300C65703002DE9F04704460F464C
:108090000BF00BFD051E5DDB04F11409EFF3118AF3
:1080A000402383F31288BFF36F8F48460AF0F6FB34
:1080B000804638B93349344888220BF0B2FC882115
:1080C00030483CE048460AF00DFCE38BA68B4FF6A7
:1080D000FF72934206F007063FD0022E10D1013303
:1080E000E383354648460AF0E7FB00283BD12549A3
:1080F000254840F231120BF094FC40F23111DFE7D9
:10810000062E13D8DFE806F0092C12120904090024
:108110006FF085054FF00008E4E700233B606368DB
:108120007BB9C4E900777EB13546F3E717491648B5
:108130004FF4E4720BF075FC14484FF4E4710BF04B
:1081400067FC1F606760EEE7524602212046FFF79A
:10815000D7FD35462846BDE8F0876FF00A05D9E718
:108160006FF00405D6E78AF31188BFF36F8FB8F17B
:10817000000FEFD000233246394620460BF0A5FC15
:10818000E8E700BF3D580300C65703001858030036
:10819000F8B5054600F11406EFF31187402383F389
:1081A0001288BFF36F8F30460AF078FB38B9204948
:1081B000204888220BF035FC88211D4825E03046F8
:1081C0000AF090FBAC8B04F00704022C12D0012CB7
:1081D0000CBF6FF004046FF0850430460AF06CFBAE
:1081E00008BB1349134840F231120BF01AFC40F25D
:1081F0003111E2E7EB8B53B90F490E4840F2EF1211
:108200000BF00FFC0C4840F2EF110BF001FC013BAE
:108210009BB2EB83002BE0D13A4621462846FFF77C
:108220006FFD2046F8BD87F31188BFF36F8FF8E725
:108230003D580300C6570300185803002DE9F041CC
:108240000E460546002845D0002943D000F114070A
:10825000EFF31188402383F31288BFF36F8F384602
:108260000AF01CFB38B91D491D4888220BF0D9FBC8
:1082700088211A4816E038460AF034FB3146284671
:10828000AC8B0BF0DBFB78B104F00704231F022B4F
:108290000CD91449124840F22D220BF0C2FB1148B0
:1082A00040F22D210BF0B4FB6FF0770438460AF052
:1082B00003FB40B909490A4840F231120BF0B1FB07
:1082C00040F23111D5E788F31188BFF36F8F204654
:1082D000BDE8F0816FF01504F9E700BF3D580300D9
:1082E000C65703001858030008B54268816002F0C1
:1082F0000302032A034602D02AB1002000E00068EE
:1083000000225A6008BD0449044845220BF089FB4D
:10831000014845210BF07CFB6A580300C657030057
:108320002DE9F34106460F4615464FF000082A4650
:1083300001A930460BF01BFC044640B10246394609
:1083400001980CF01BFB2D1BA0442744EFD14246A3
:10835000311D30460BF029FC40B106490648482241
:108360000BF05FFB034848210BF052FB404602B084
:10837000BDE8F08190580300C65703002DE9F34192
:1083800007460E4615464FF000082A4601A9384612
:108390000BF0FCFB044648B12EB102460199304671
:1083A0000CF0ECFA26442D1BA044EED1424607F116
:1083B0000A0138460BF0F9FB40B106490648632232
:1083C0000BF02FFB034863210BF022FB404602B069
:1083D000BDE8F08190580300C6570300014B0360CD
:1083E000002070474050030010B504460BF051FDCB
:1083F00010F1780F00D050B9054A20460BF0FCFB75
:10840000D2F8C43023EA0003C2F8C430002010BD03
:10841000C40C00202DE9F0471A4CDFF86C80DFF81F
:108420006C9005460E461746444525D9184919480B
:108430004FF4BB620BF0F5FA15484FF4BB610BF03B
:10844000E7FA6268D9F824309A4213D3A3698BB152
:10845000A9889078C9B2884205D13A463146284663
:10846000BDE8F04718475279012A03D13A46314610
:10847000284698472434D7E7E3D36FF08500BDE85A
:10848000F08700BFDC03002000040020C40C0020A3
:10849000BB580300C65703002DE9F041134B144F9E
:1084A0005E6A144BBB421BD91349144840F2BB52BD
:1084B0000BF0B7FA104840F2BB510BF0A9FA5C6818
:1084C000B4420BD31D694DB194F802C08488E4B264
:1084D000A44503D12B46BDE8F04118472433E1E71A
:1084E000EDD36FF08500BDE8F08100BFC40C002023
:1084F00000040020DC030020BB580300C657030023
:10850000024B00221A605A60704700BF7F0D0020A6
:108510002DE9F041114CDFF8488005460E4617461C
:10852000444516D90F4910484FF4C1620BF079FA4F
:108530000C484FF4C1610BF06BFA63690BB924343A
:10854000EEE73A463146284698470028F7D1BDE87D
:10855000F081F2D36FF08500F9E700BFDC03002063
:1085600000040020BB580300C6570300430670B543
:108570001CD0114B114CA3421AD9114911484FF488
:108580007D720BF04EFA0E484FF47D710BF040FAFD
:10859000196A1E7F00220439D5B2AE4201D82433B5
:1085A000E9E7013211F832508542F5D1012001E0AE
:1085B000EED3002070BD00BFDC03002000040020CB
:1085C000BB580300C6570300F7B58488E4B22046C1
:1085D0000F468DF80740FFF7C9FF054680B114F03C
:1085E0007F0F0E4E02D096F8BA30ABB1204657B18D
:1085F00002F058FDF3691BB10DF1070108209847FF
:10860000284603B0F0BD02F07DFDF369002BF7D0E2
:108610000DF107010920F2E71D46F1E7C40C002027
:1086200008B509480378C3F341130A3350F82330DF
:108630003BB100F1080200F110019847C043C00FA0
:1086400008BD1846FCE700BFC40C002004282DE933
:10865000F14FDFF8C49004460F4616D001282DD103
:10866000DFF8B88098F8B93043B300F039FE2C4DEC
:108670004D452FD92B492C4840F2C2420BF0D1F97D
:1086800040F2C24127480BF0C3F9FFF739FFE7E793
:108690000BEBC6060AF1010A30790BF0FAFB024631
:1086A00030790BF0A9FAD8F8C430002A23EA000385
:1086B000C8F8C43013DA002388F8B930184D4D4596
:1086C0001CD91849184840F2EE420BF0AAF940F2C2
:1086D000EE41D7E7EFD2D5F820B04FF0000A2B7F5C
:1086E0005FFA8AF6B342D3D82435C1E7EB681BB1F1
:1086F0003A462146284698472435E0E7F6D3074B0B
:108700001B6A2BB13946204601B0BDE8F04F18472F
:1087100001B0BDE8F08F00BF00040020C40C0020B1
:10872000DC030020BB580300C657030073B58678EE
:108730008DF80060037942791C4C43EA0223ADF8BE
:108740000230C378304603F003038DF804300BF099
:1087500053FAD4F8C430184205460BD0304600F026
:10876000A1FD3046FFF740FE0CF07FF810B99620CF
:1087700009F010FE684602F06BFC10F1780F03D090
:1087800010B1002002B070BD9DF8000002F0F6FCB0
:1087900010F1780F01D00028F3D1D4F8C4300120B3
:1087A0002B4384F8B900C4F8C430EBE7C40C0020B4
:1087B0002DE9F047A84EB36904460F461546FBB9AC
:1087C000237803F01F03012B00F09E80022B00F0A2
:1087D000068133BB94F900002A686178002834DAF6
:1087E000062912D008292BD0D9B901231370517052
:1087F00096F8C3305B0043F001031370022328E1B5
:1088000098470028DCD100200DE06288100A011F83
:108810000129844605D9072803D8716AD2B20C7899
:108820001CB96FF01500BDE8F0874E78664503D19E
:108830009A4200F0098101332144F0E70B7808E106
:1088400096F8BA301370012303E101390829E8D8FA
:1088500001A353F821F000BFF3880200238802002F
:1088600001890200238802007D880200238802001B
:1088700023880200238802008B8802006088C0B22F
:1088800002F096FB0028BED0CBE76388756A63BB15
:10889000FFF736FE638886F8BA30F369002BB2D052
:1088A0006E4903209847AEE76B78042B10D0052B58
:1088B00011D0022B04D16F796388BB4208BF01201D
:1088C0002B781D442B78002BEED10028A9D0DFE7B0
:1088D00095F80380F4E76388BB42F1D1B8F1000F4B
:1088E000EED12846FFF722FFEAE7FF270020B8462F
:1088F000E8E76388012B94D1002386F8C33082E730
:108900006388012B8DD1F8E796F8BA30D5F800C00E
:10891000002B86D0A388756A5FFA83FE2A461078FA
:1089200000283FF47EAF5178022904D192F80480E8
:10893000F04500F295800244F1E78CF800208CF8B5
:10894000012039605FE7154496E00B2A7FF469AF98
:1089500000274FF0FF08C146BA4606E06B78042BAB
:108960000FD0052B21D02B781D442B78002BF5D16F
:10897000F36913B1514607209847002F7FF443AFA6
:108980004FE795F80280A38895F803909845EAD1BF
:1089900063889945E7D1B8F1070F1DD806EB0803A6
:1089A000AA4683F8BB900127DDE7A3884345DAD1C7
:1089B0006388DBB24B450AD0AF78384600F072FCD2
:1089C0003846FFF711FDB0FA80F77F09CBE728465C
:1089D000FFF7ACFE0746C6E7AA460027C3E794F9AF
:1089E00000206378002A19DA002B7FF41AAFA488DC
:1089F0002D68E4B22046FFF7B9FD00283FF411AF1F
:108A0000630604D096F8BA30002B3FF40AAF29462B
:108A1000204602F097FB00236B70EFE6012B08D095
:108A2000032B7FF4FEAE6388002B7FF4FAAE0121A6
:108A300003E0618800297FF4F4AE2046FFF7C4FD0F
:108A400000287FF4E0AEECE6022829607FF4F6AE61
:108A50004B883B60D7E600BFC40C00207E0D002091
:108A600094F9000062780028BFF66FAF002A3FF447
:108A700064AF0A2A7FF4D5AE2A78002A3FF4D1AE3B
:108A8000697804297FF45FAFA9788B427FF45BAFEC
:108A9000072B96BF9B19002393F8BB308CF800304E
:108AA000D1E600BF13B5164C237DF3B9E268A16887
:108AB000019201AB80200BF0ADF8019AA36813443A
:108AC000A360E3689B1AE3606BB962B12369E28833
:108AD0009A4208DD94F8C82093FBF2F102FB1133AF
:108AE0000BB90123237502B010BD00231A461946A5
:108AF0008020237502B0BDE8104002F069BB00BFC2
:108B0000C40C002030B585B0002302460D46019309
:108B1000002858D1002935D108220B460DEB02015F
:108B20000BF0D0F9002804DA802002F0BBFA05B07F
:108B300030BD2F4C029A2260039A626004F1380221
:108B4000A2609DF90820BDF80E302575002AC4E901
:108B500003550ADB802B04D9802002F0A3FA002001
:108B6000E3E713B1C4E90333E1E7FFF759FD002858
:108B7000DAD0E28823699A42D4BFE260E360FFF76B
:108B800091FFD4E71A4CD4E90215002D01AB04DCA7
:108B90000BF098F90028CADAC6E72A460BF092F9DA
:108BA0000028D9DB019AA3681344A360E3689B1AE9
:108BB000E360002BBBD104F13803A360FFF730FD65
:108BC0000028DCD1B0E7802807D1094BDA68002AF9
:108BD000D5D11B7D002BD2D1A9E7064906484FF419
:108BE000C5720AF01EFF03484FF4C5710AF010FF6A
:108BF000C40C0020BB580300C6570300054B064AAF
:108C00009A62064ADA62064A1A63064A58629A610A
:108C100000207047C40C0020B18702009984020034
:108C200011850200158402002DE9F34104464D4DE3
:108C30004D484FF0FF334FF0FF3207F051FF95F8EA
:108C4000B830002B40F088806B6A83B147482C62B3
:108C5000E8616E6A02F0F6FB02F078F9041E10DAA1
:108C6000414807F0F3FF204602B0BDE8F08100F074
:108C7000CDF8FFF7C3FF6B6A002BE7D14FF0FF344D
:108C8000EEE700F04FFB041EEADB7378012B66D1A0
:108C9000F379002B63D00026684685F8C830ADF81C
:108CA00002308DF804608DF8006002F0D1F9041EE6
:108CB000D6DB802768468DF8007002F0C9F9041EE3
:108CC000CEDB2B49304602F0A9FB041EC8DB284945
:108CD000384602F0A3FB041EC2DB264CDFF8988066
:108CE00044451DD9254926484FF4C3620AF099FE30
:108CF00022484FF4C3610AF08BFE276A0026227FC8
:108D0000F3B29A4201D82434EAE707EBC30257F8DA
:108D10003310107902F082FB01360028EFD0ADE766
:108D2000EBD3002002F02AFA041E99DBD5F8C430F8
:108D3000802043F00103C5F8C43002F01FFA041E7E
:108D40008EDBD5F8C43043F48033C5F8C43001233A
:108D500085F8B830002483E76FF0770480E76FF080
:108D600015047DE7C40C0020000300204D8602009E
:108D7000058B0200DC03002000040020BB58030028
:108D8000C657030030B51F4B8BB005AA03F1100581
:108D900018685968144603C40833AB422246F7D119
:108DA0001B7823701022002101A80BF0F5FD122280
:108DB000002115480BF0F0FD102101A80BF01AF965
:108DC00000281BDD0828B8BF0820093801AB0E4970
:108DD0001A18002012F8013F0AAC04EB131403F038
:108DE0000F0328336B44013014F8144C13F8143C6F
:108DF0000C7008284B7001F10201EBD102480BB056
:108E000030BD00BFED5803004E2300202DE9F04F88
:108E1000834B93F800B087B0BBF1000F03D08148BB
:108E200007B0BDE8F08F7F4C00264FF0011AB04626
:108E30003546B14623783BB97B4B02349C42F3D193
:108E4000774A01231370EAE76378052B29D8DFE816
:108E500013F0A4000600E400A4002B004F00402300
:108E600004A88DF810B0ADF812308DF814B002F0EF
:108E7000C5F898B1082304A8ADF8123002F0BEF886
:108E800060B16A496A48ADF812B040F28F120AF038
:108E9000C8FD40F28F1165480AF0BAFDBDF81230E6
:108EA000E37123781C44C5E7E378002BF9D1A3785C
:108EB000CBB9604D03E06B689C420FD024355E4B0C
:108EC0009D4208D959495A484FF49B720AF0A9FDAE
:108ED0004FF49B71DFE7EED30020A1E7AB6813B13D
:108EE00041462046984708F101085FFA88F8D8E71C
:108EF000002DF1D000222B7F9A42EDD2296AA07872
:108F000001EBC2010B79984201D00132F3E701274E
:108F1000E07800F003008DF81400207994F805C083
:108F200040EA0C20ADF8120094F902000028FBB2D0
:108F300028DA07F110004FF0010C0CFA00F010EAEB
:108F40000A0F26D143F080008DF8100004A8CDE967
:108F50000213019202F052F8DDE90121039BC0B92E
:108F60009DF81020A27012F0800F18BF10330A7104
:108F700018BFDBB24FF0010214BF9A40BA404AEA70
:108F8000020A8EE70120B84010EA0A0F01D1184604
:108F9000DAE70137102FBBD1B7E7032E1AD1FFF75D
:108FA000F1FE074650B1FEF75CFA024630B11028D8
:108FB000A8BF10223946A01C0BF0E0FC23786FF00C
:108FC0000200E118001B04EB5303C84213D501361D
:108FD000F6B266E7002EF1D1B9F1000F3FF47CAF95
:108FE000A4EB090389F80230C3F3072389F803309F
:108FF00089F80480EBE71A78203A5E2A06D90B49F3
:109000000B48CB220AF00DFDCB2144E701F801BC4F
:1090100013F8012901F8022DD7E7A14641E700BF67
:109020004D23002038030020DB030020FE580300FE
:10903000C6570300DC0300200004002010B5094BD4
:1090400000211A461C78844204D15C6814B102EBFA
:10905000811010BD0131042903F14003F2D1002039
:10906000F7E700BF900D00202DE9F34150F8283CB0
:1090700010F82C6C103304460AD1036950F8202CE8
:10908000980736D5D2B9590715D5002344F8283C9E
:1090900054F8283C10330BD054E9077554F8148C5D
:1090A0000BF0E3FB00284FD02E4821460BF0CDFB00
:1090B00002B0BDE8F08143F00403236154F8241C9E
:1090C00001AB30460AF0A6FD10B16FF01503DDE7E5
:1090D000019A54F8243C134444F8243C54F8203CAE
:1090E0009B1A44F8203C54F81C3C134444F81C3CA4
:1090F000CEE754F8241C01AB304602F0EFF800280C
:10910000E3D1019D54F8243C2B4444F8243C54F80A
:10911000203C5B1B44F8203C54F81C3C2B4444F896
:109120001C3C002DB1D0304602F092F9B5FBF0F3B3
:1091300003FB1055002DA8D154F8203C002BA4D0DF
:10914000304602F021F9A3E744F8180CA4F110000E
:1091500007F058FF002DABD0424639463046A847AD
:10916000A6E700BF200900204B1E012B73B5064661
:109170000D460FD8FFF762FF044668B9012D09D1EB
:1091800001AB01220DF10301304602F0A7F8019B6B
:10919000002BF5D102B070BD0BF067FB04F12C0180
:1091A00008B1012D05D1084602B0BDE87040FFF7B7
:1091B0005BBF034802B0BDE870400BF046BB00BF88
:1091C000200900202DE9F74F0646019115469846E3
:1091D0000AF06BFD044600285BD1EFF3118A4023AF
:1091E00083F31288BFF36F8FDFF8ACB00022002347
:1091F000584607F069FF70B9DFF8A090A70109EBA6
:109200008414636813F1100F14D10193584607F0CA
:10921000F9FE019B06E00134042C0BF1400BE5D173
:109220006FF00B038AF31188BFF36F8F184603B0FA
:10923000BDE8F08F019B2061C4E902350C9B63619E
:109240000D9BA36130466FF00F0309F80760C4F867
:109250003C80636002F0FCF858B1304602F0F8F848
:10926000B5FBF0F303FB10551DB1E36B43F00403B2
:10927000E36318F0020F07D007F12C0108484944B6
:109280000BF0E3FA0023CDE7304602F07DF8034609
:10929000C8E76FF00F03C9E7AC0D0020900D002068
:1092A0002009002010B5EFF31184402383F31288C6
:1092B000BFF36F8FFFF7C2FE50B14368103307D181
:1092C0006FF08B03436000F12C0104480BF0BDFAF2
:1092D00084F31188BFF36F8F10BD00BF20090020F9
:1092E000F8B50E4C04254027EFF3118687F312885A
:1092F000BFF36F8F6368103307D16FF08B0308489B
:10930000636004F12C010BF0A0FA86F31188BFF31F
:109310006F8F013D04F14004E6D1F8BD900D0020AF
:109320002009002070B50A4C0A4E0025314620461F
:1093300008F0C8F80122A4F11000114601350BF025
:1093400066FA042D04F14004F0D1002070BD00BF86
:10935000BC0D0020699002000169012381F84B30A7
:109360000B6833B191F849301BB1024808310BF05A
:109370006CBA7047200900200169012381F84A3046
:109380000B6833B191F848301BB1024808310BF03B
:109390005CBA70472009002070B50569EFF31186AB
:1093A000402383F31288BFF36F8FD5F89000FEF748
:1093B000B7FF044686F31188BFF36F8F30B10448BE
:1093C0000022002305F1180108F07AF9204670BD4B
:1093D0002009002070B5012382F8483013680D463B
:1093E00014463BB192F84A3023B10E4802F108010D
:1093F0000BF02BFAD4F89030DA885B899A4205D1C9
:109400007DB904F1180140F6CD4204E004F11801E1
:10941000002DF8D00022BDE870400248002308F07B
:109420004FB970BD2009002070B50E4681880446F2
:10943000C9B2154815460AF014FC10B394F900207F
:109440006378002A16DB202B04D0222B0ED06FF07D
:1094500085000AE02B681A6840F8102C9A8820F8DA
:109460000C2C9B7900F80A3C002070BD638800F842
:10947000093CF9E7212BEAD1103807232860336033
:10948000F2E76FF01200F0E7900E002008B50146F9
:1094900003480AF0F4FB10B1012300F8073C08BDB3
:1094A000900E00200D4A03460021A0F848101068D5
:1094B000C3F8940090889279A3F8980083F89A20D2
:1094C00083F89C1083F89B10A3F89E1083F8A010DB
:1094D000402203F14C000BF05FBA00BFA84F03001D
:1094E00010B504690023C4F8A8300C4BC4F8A400DC
:1094F000596804F1A80269B9C3E9002204F108001F
:10950000074907F0DFFF04F11800064908F0B2F838
:10951000002010BD0A605A60F0E700BF900E0020E6
:10952000D53C03009995020073B504698DF80710C6
:10953000002384F848304025EFF3118685F3128824
:10954000BFF36F8F0122D4F890000DF10701FEF7F1
:10955000E7FE86F31188BFF36F8F01280AD00BF066
:1095600084F910B994F8A1306BB9094B1A780AB98B
:1095700001221A702122002304F11801054808F085
:109580009FF802B070BD0021212008F0C7FED3E78C
:109590006023002020090020F0B5D0F88C305B68F3
:1095A0001B6A1F7D85B0054638460AF07EFB0646DD
:1095B00050BB95F886303BB3A86F0146C38831F89D
:1095C0000A2F9B1A9BB2B3F5806F28BF4FF48063BC
:1095D00003AA0AF0B4FA0446B0B18306A5F1180351
:1095E00008BF00F1FF3485F830600193074B039901
:1095F0000093224602233846FFF7E4FDA86F224677
:1096000000F10A010AF0D1FA05B0F0BDD5930200CD
:1096100037B514460A1E054621DDD4F88C0004F146
:109620004C01FEF77DFE012384F8493023683BB1ED
:1096300094F84B3023B1114804F108010BF005F9FF
:10964000D4F88C209388918912695B1A9BB2D31A43
:109650003F2B04D8012384F8A03003B030BD94F828
:109660009E30002BF9D0064B009301940123402239
:1096700004F14C012846FFF7A5FDEEE72009002084
:1096800011960200F7B50D4601461D480AF0DDFAB5
:10969000044610B30646691E56F8A4395F680529CA
:1096A0001BD8DFE801F01C1A031C222610F8061C48
:1096B00099B9012300F8063C3B6A3246187BFFF754
:1096C000A7FF14F85C2C42B93B6A187D0D4B009340
:1096D000019602231146FFF775FD03B0F0BD304639
:1096E00003B0BDE8F040FFF7DDBE012304F8053C00
:1096F000F3E710F8053C002BEFD00023F6E700BF9E
:10970000900E0020D593020037B5094D0949002479
:1097100000944FF0FF334FF48062284607F044FF77
:10972000054928460BF0A7F8204603B030BD00BF1E
:1097300020090020402600204759030008B50448AE
:109740000AF059F9BDE8084002480AF054B900BFD0
:109750005059030085590300014809F029BC00BF96
:109760004050030038B5044618B90F4B0F485B68EA
:1097700098476168B1F5683F10D0B1F5680F0DD01A
:109780000B4DA9420AD011F46861206807D0014648
:10979000084807F0F3F800232360656038BD142201
:1097A0000BF0FAF8F9E700BFF8010020B359030005
:1097B0002C5F5CA99813002008B520B34368B3F56B
:1097C000683F10D101220368BFF35B8F53E8001F8D
:1097D000002903D143E800200028F7D1BFF35B8FB5
:1097E0000DD1002008BD094A93420AD000684FF00D
:1097F000FF324FF0FF3307F073F90028F1D004482F
:10980000F0E70448EEE76FF4E040EBE72C5F5CA97B
:10981000E98FFFFFEA8FFFFF08B5D8B14368B3F5C2
:10982000683F10D100220368BFF35B8F53E8001F2D
:10983000012903D143E800200028F7D1BFF35B8F53
:109840000BD1002008BD074A934208D0006807F0FA
:10985000FDF9F6E76FF4E040F4E70348F2E7034868
:10986000F0E700BF2C5F5CA9E98FFFFFEA8FFFFFE5
:1098700010B5044618B91D4B1D485B6898476368CE
:10988000B3F5683F2FD0B3F5680F2CD0194A934237
:1098900019D1236803BB18484FF0FF324FF0FF3354
:1098A000214606F0F9FF08B923681BB90F4B13488E
:1098B0005B6898472068142200210BF06DF84FF484
:1098C0006863636008E0B3F5683F0DD83A2B03D0B6
:1098D00040F6BA629342DED120680AF07AFF6368EC
:1098E00043F03A03636010BD054AF3E7F801002036
:1098F000B35903002C5F5CA998130020D9590300C9
:109900003A00003A08B506490648402314220AF0F6
:1099100049FFBDE808400449044809F0BBBB00BF4B
:10992000980E002098130020485003005C5003005C
:1099300037B505460C46C9B18B680093D1E90023C1
:10994000124845210AF04BF963690093D4E90323D7
:109950000F4845210AF043F9E2690E4845210AF013
:109960003EF9A2690C4845210AF039F9012D06D1CA
:10997000EFF305820948103A45210AF030F92146F3
:10998000284603B0BDE8304006F0CCBD065A0300BF
:109990003A5A03006E5A0300825A0300B55A030074
:1099A00030BFFFF7FDBF00BF2DE9F0410B4EDFF8E0
:1099B000308006EB0807CC1B054632460949204695
:1099C0000AF0DCFFA01942460021083C0AF0E4FF3F
:1099D0002C6707F10800BDE8F08100BF000000001F
:1099E00004000000F04E0300054B5A699B689A4240
:1099F0001FBF044A536843F080535360704700BF51
:109A0000E420002000ED00E02DE9F8433D4D8046C4
:109A100089463D48452117460AF0E1F8AB6ADA0667
:109A200026D53A4845210AF0DAF81124AB6A1B071B
:109A300004D5374845210AF0D2F81224314DAB6ADB
:109A40009E0717D5334845210AF0C9F86E6BAB6AFB
:109A50001C0645D53048324645210AF0C0F8B9F118
:109A6000000F03D0AB6A23F08003AB62132403E042
:109A70001024DBE76FF01506224DAB6AD80704D53A
:109A8000264845210AF0ABF81424AB6A990604D5A0
:109A9000234845210AF0A3F815241A4DAB6ADA06CB
:109AA00002D4AB6A9B070AD56B68180507D54146F7
:109AB000304600F05BFBB0B180F309880224114B03
:109AC0009A6A920642BF5A6A22F400525A629A6A0D
:109AD00042F0FF029A6200233B702046BDE8F88303
:109AE0006FF01506C2E7AB6AD906E8D50D490E48F6
:109AF0004FF4927209F095FF0A484FF4927109F001
:109B000087FF00BF00ED00E0CD5A0300E85A0300D4
:109B1000205B0300385B0300555B0300705B0300B0
:109B2000945B0300C85B0300C657030010B5204CCC
:109B3000204845210AF053F8A36A990136D51E48FA
:109B400045210AF04CF81E20A36ADA0104D51B480F
:109B500045210AF044F81F20154CA36A1B0304D5C5
:109B6000174845210AF03BF82120A36A590304D580
:109B7000144845210AF033F822200D4CA36A9A03B9
:109B800004D5114845210AF02AF82320A36ADB03F3
:109B900004D50E4845210AF022F82420044A936A8D
:109BA0006FEA03436FEA1343936210BD1D20CBE7B6
:109BB00000ED00E0FA5B0300175C03002F5C03007C
:109BC0004E5C0300715C03009B5C0300BA5C030005
:109BD00070B5284C06460D462748452109F0FFFF81
:109BE000A36AD9043BD52548452109F0F8FF172081
:109BF000A36A1A0504D52248452109F0F0FF182070
:109C00001C4CA36A9B0511D51E48452109F0E7FFAE
:109C1000A26BA36A180408D51B48452109F0DFFF91
:109C20001EB1A36A23F40043A3621920114CA36A56
:109C3000590504D51548452109F0D1FF1A20A36A1A
:109C4000DA050ED51248452109F0C9FF1B20094A43
:109C5000936A43F47F43936200232B7070BD1620F8
:109C6000C6E7A36A9B04F2D50A48452109F0B7FF6D
:109C70001C20ECE700ED00E0EA5C0300055D03005A
:109C8000205B03001B5D0300395D0300535D03008F
:109C9000735D0300945B0300F0B56D4B0446586898
:109CA0008BB0C0F30803002585F31188BFF36F8FD5
:109CB00002F07F46B6F17F4F07D102F00C06082E66
:109CC0000ED16448452109F08AFF6349634840F298
:109CD000114209F0A6FE40F211415F4809F098FEDA
:109CE00016074CBF0C460125002CEED00026DA1ECC
:109CF0008DF80760092A00F29980DFE802F0058CF0
:109D000090779797979797945548452109F067FF63
:109D10008DF807604E4EF36A9A0705D551484521E4
:109D200009F05DFF002329E0F36A002B02DA4E48B8
:109D30004521F5E7F36A5B0064D54C48452109F0FD
:109D40004EFF7369A26943F480737361BFF34F8F51
:109D5000BFF36F8F736932F8022C23F48073736141
:109D6000BFF34F8FBFF36F8F4DF602739A4224D12A
:109D700022683F48452109F032FF23689DF80720FB
:109D8000CAB902AE04F1200720686168324603C2F6
:109D90000834BC421646F7D1099A002D52D0C2F3BE
:109DA000080121B96FEA52226FEA4222099202A900
:109DB0001846FFF7BDFD0BB0F0BDB36ADBB23BB197
:109DC0000DF1070201212046FFF71EFE0346D5E7ED
:109DD000B36A13F47F4F05D00DF107010120FFF79F
:109DE000F7FEF3E7B36AB3F5803F02D3FFF79EFEB9
:109DF000ECE71949194840F2EA2209F012FE40F254
:109E0000EA216AE71449154840F2ED2209F009FEFB
:109E100040F2ED2161E70DF107020021D3E70DF1DA
:109E200007010020DBE71348452179E71249134A6F
:109E300010F4F87F08BF0A461148103B452109F08D
:109E4000CEFE6FE722F4FF7222F00102AEE700BF00
:109E500000ED00E0BE5D0300C85B0300C6570300D1
:109E6000EE5D03000A5E0300305E0300435E030004
:109E7000675E0300885E0300905D0300A55D03003C
:109E8000B15E0300044B5A6942F010025A615A69EC
:109E900022F008025A61704700ED00E0EFF30880FD
:109EA000EFF3098101B57246FFF7F6FE01BD00BF71
:109EB000002080F31488BFF36F8F0F4880F3088869
:109EC00005F086F900200D490860BFF34F8F00F0C0
:109ED0002BF8402080F3118809484FF404614018A2
:109EE00080F30988EFF314800221084380F314887B
:109EF000BFF36F8F00F00AF9803C002094ED00E082
:109F0000C02E00200749D1F890200023C2F3072279
:109F10001846934200DB7047C1F89830C1F8A000A2
:109F20000133F6E700ED00E008B572B6002383F3D5
:109F30001388FFF7E7FF144B4FF0FF32C3F8802080
:109F4000C3F88420C3F88820C3F88C20C3F890207D
:109F5000C3F89420C3F89820C3F89C20C3F880214C
:109F6000C3F88421C3F88821C3F88C21C3F8902159
:109F7000C3F89421C3F89821C3F89C2162B6BFF3BB
:109F80004F8FBFF36F8F08BD00E100E0084B9B6867
:109F900083420BD1EFF3058343B1064B5A6842F07D
:109FA00080525A605A6A22F400425A6208F05CBA3F
:109FB000E420002000ED00E014498A684FF03000F2
:109FC0001044EFF3098C80E8F01F402080F31288E2
:109FD000BFF36F8F0E4F4FF000664A698A603E6094
:109FE000106F0C4C2060506F0023536780F3118872
:109FF00004B5104600F01EF9BDE8044002F130003F
:10A0000090E8F01F8CF3098870470000E4200020DE
:10A0100004ED00E0B81300201EF0040F0CBFEFF3B6
:10A020000880EFF30980816911F8021C0229FFD032
:10A0300001B5724609F0CFFE01BD00BF40B2002855
:10A0400007DB044A4109012300F01F00834042F866
:10A050002130704700E100E040B200280CDB4309EA
:10A06000064900F01F0020330122824041F82320DE
:10A07000BFF34F8FBFF36F8F704700BF00E100E069
:10A08000054B420900F01F0053F82220012303FA78
:10A0900000F01040704700BF00E100E008B5D307B2
:10A0A0000BD40231072909D90E490F486B2209F058
:10A0B000B8FC0C486B2109F0ABFC002140B2002831
:10A0C000ACBF00F16040094B4FEA4111B8BF00F04E
:10A0D0000F00C9B2AABF00F56140195480F80013FF
:10A0E00008BD00BFC95E0300C657030014ED00E0C1
:10A0F000044B054A23F07F039360BFF34F8FBFF3F8
:10A100006F8F70470070020000ED00E008B5FFF7A8
:10A11000EFFF074AD2F8883023F47003C2F8883082
:10A1200006F0ECFA08F0E6FB00F05AF806F02AFB1D
:10A1300000ED00E042F8203C009B42F81C3C0A493C
:10A14000019B42F8183C029B42F8143C21F00101AB
:10A150004FF0807342F8043C42F8081C0023203A78
:10A1600002654367704700BFA17C0200094A0346AD
:10A17000906870B113F1160F006E05D0A0F1400287
:10A180009A4205D8834203D2814228BF00207047FB
:10A1900000207047E420002008B51546094A0A4B04
:10A1A0009060026F1A600E4600F044F82C4686F369
:10A1B00009880020054B98472046002100220023F3
:10A1C000034C2047E4200020B8130020F53D030095
:10A1D000A17C0200014B10221A61704700ED00E0E3
:10A1E000044800234021C2180133302B82F80013A9
:10A1F000F9D1704700E100E008B5EFF30583064AA6
:10A20000103B02EBC30152F8330049688847BDE8B0
:10A210000840FFF7E9BB00BF044C0300024B034AB0
:10A220000348012100F084B8000004200000002051
:10A230006C500300026E054B403A1A60044A4021FC
:10A24000C3E901121846012100F08EB8BC130020AA
:10A2500000000B1508B5104AD2F89030C3F307235D
:10A26000013B984207D9024645210C4809F0B7FC4A
:10A270006FF0150008BDC2F898000B6823F01F03AB
:10A28000034343F01003C2F89C308B6843F0010392
:10A29000C2F8A030EEE700BF00ED00E0045F03006D
:10A2A000F0B50F4685B01C4605460026BE420CDAC6
:10A2B000686808B38CB1431E184209D01048324672
:10A2C000452109F08CFC6FF01502104605B0F0BD79
:10A2D0001F28F3D929680B42F0D12B68019309F0AC
:10A2E000ACFDAB6801A90343D0B20393FFF7B2FF03
:10A2F00010F1160FE7D0421C01360C35D6E700BF2F
:10A300002F5F0300044B0522C3F89420BFF34F8F47
:10A31000BFF36F8F704700BF00ED00E0BFF35F8FAA
:10A32000024B0022C3F89420704700BF00ED00E00C
:10A3300010B50A4C01232278FFF7B2FF20701630C7
:10A340000AD1074907484FF4BB7209F06AFB044879
:10A350004FF4BB7109F05CFB10BD00BF612300200E
:10A36000575F0300C657030008B5114A002312784F
:10A37000FFF796FF10F1160F08D00E4A0021D2F811
:10A380009030C3F3072398420BDB08BD0A490B4802
:10A3900040F2951209F045FB074840F2951109F08B
:10A3A00037FBC2F89800C2F8A0100130E7E700BF01
:10A3B0006123002000ED00E0575F0300C657030053
:10A3C0002DE9F04F70487149D0F890300D68C3F313
:10A3D00007239D4285B00AD96D496E4840F2AD12FF
:10A3E00009F01FFB40F2AD11694809F011FBFFF7BE
:10A3F00095FF49680022954201F10C0129D1664C74
:10A40000664F25706846FDF7E9FFDFF89481DFF8B5
:10A41000949106460025AE422ED123785A49002059
:10A42000D1F89020C2F307229342C0F2A380FFF735
:10A4300069FFD1F89030C3F30723082B00F0A08008
:10A440005349544840F21F2209F0EBFA40F21F2111
:10A45000CAE7C0F8982051F80C3C23F01F031343BF
:10A4600043F01003C0F89C3051F8043C43F0010362
:10A47000C0F8A0300132BEE7009A02EB05132901B3
:10A48000D3F80CA00AEA0700B0F5000F58D00AD89C
:10A49000B0F5001F34D0B0F5800F46D0B0F5801F66
:10A4A00012D00135B7E7B0F1807F54D0B0F1007F12
:10A4B000F7D19868D3F804A0525809F0BEFCCDE952
:10A4C00001A240F480200BE09868D3F804A0525811
:10A4D00009F0B3FCCDE901A240F0885040F43020EF
:10A4E0000390207801A9FFF7B5FE00283EDA28493D
:10A4F000284840F2D71209F094FA40F2D71173E7D6
:10A500009868D3F804B0525809F097FC1AF0010F7C
:10A5100040EA0800CDE901B20390E2D01C491D4891
:10A520007B2209F07EFA7B215EE79868D3F804A0CD
:10A53000525809F082FCCDE901A240EA0900CFE7B8
:10A540009868D3F804A0525809F077FCCDE901A22D
:10A5500040F08270C4E79868D3F804A0525809F01C
:10A560006CFCCDE901A240F08870B9E72378013393
:10A57000237096E7C1F89830C1F8A00001334FE787
:10A58000002005B0BDE8F08F00ED00E0785003003A
:10A59000575F0300C6570300612300200000F0FF4F
:10A5A000000008110000020608B5024B1B6898471E
:10A5B000002008BDC8130020034B044A186093789C
:10A5C00043F0020393707047C81300205C01002021
:10A5D00008B50649064821F00701C1F1005202F50D
:10A5E0008022FDF7C7FA002008BD00BF874B00207E
:10A5F000CC1300200E4A0123C2F840354FF08042B0
:10A600004FF08051C2F87835D1F83001082808D1D0
:10A61000D1F83411052904D80648415C09B1C2F8C3
:10A6200038364FF080430122C3F880250020704760
:10A6300000E00140955F030020B1034B800143F02F
:10A6400001031847704700BFB04F0300BFF34F8F9F
:10A650000549064BCA6802F4E0621343CB60BFF3BE
:10A660004F8F00BFFDE700BF00ED00E00400FA05DA
:10A67000020600F07F0312D5082B05D1010700F078
:10A680000F0306D50E48704710F0780F12D100F076
:10A690000F034C2000EB43100A4B18447047082B63
:10A6A00005D1020700F00F0306D50748704710F0E8
:10A6B000780FF6D000207047044800EB4310704735
:10A6C00024150020D8130020441600204415002033
:10A6D000014902480AF0B9B800140020C00900205E
:10A6E000014601480AF088B82403002010B510493B
:10A6F000BFF35B8F002351E8002F012A03D141E80B
:10A7000000300028F7D1BFF35B8F0CBF0120184643
:10A710000DD151F8044C14392046FDF78FFD10F18E
:10A72000780F04D12046BDE81040FDF731BD10BDC3
:10A73000F813002002480022002306F0EDBB00BF02
:10A740002403002013B5124801F0C6F8114B9842BB
:10A750001AD1114805F05AFC0024104805F0AAFC53
:10A760000F49104800944FF0FF334FF4806206F019
:10A770001BFF0D490B480AF07EF80C480C4906F007
:10A78000A1FE204602B010BD6FF00400FAE700BF42
:10A79000F1A902000000AD0B5E62030098500300B7
:10A7A000802A0020C00900209F5F030000140020C1
:10A7B00055AB020038B5002464F07F00C0B2FFF74B
:10A7C00057FF50B91B491C4840F27A2209F029F979
:10A7D00040F27A21174809F01BF9013409F042FBD5
:10A7E000082CE9D1154D0024E0B2FFF741FF40B934
:10A7F000104911484FF4207209F013F94FF42071F9
:10A80000E8E7036903B90561013409F02BFB082C63
:10A8100005F14005E8D10A4809F024FB094BD3F8BB
:10A820007C2212B9084AC3F87C22084809F01AFBB6
:10A83000002038BDAA5F0300C6570300681A002035
:10A8400024150020D813002068160020441600208C
:10A8500010B5054CFFF76EFF20B14168204606F0A9
:10A860008DF8F7E710BD00BF9002002013B500225D
:10A870001848002301A906F00FF838B316484521FF
:10A8800009F0ADF9FFF7E4FF12480022002301A907
:10A8900006F002F8044670B11048452109F09FF90E
:10A8A0000F4910484FF4E37209F0BBF80C484FF41D
:10A8B000E37109F0ADF80198042340600374FFF7D9
:10A8C0000FFFFFF705FF204602B010BD0198406062
:10A8D000FAE700BF90020020DE5F03000160030082
:10A8E000AA5F0300C6570300022810B5024611D81C
:10A8F0000C4B1C5CFFF7BAFF90B10022027404728B
:10A90000FFF7EEFE084B93F824304BB1BDE8104042
:10A91000FFF7DEBEBDE810400448452109F05FB9ED
:10A9200010BD00BF5B620300D8130020226003004B
:10A930002DE9F041877806463846FFF799FE3B0639
:10A94000F47805461BD54CB1032C4BD03B46224630
:10A950002548BDE8F041452109F041B9FFF786FFE0
:10A96000034600283ED00122AC7702740322027312
:10A970009D60FFF7B5FEBDE8F041FFF7A9BE4CB101
:10A98000012CE3D1FFF772FF034658B36C770474D0
:10A990000473EDE7FFF76AFF20B3B278134B12F0B0
:10A9A000800F02F0080111D041B1D3F8A836EB6056
:10A9B00001230374022303738560DAE702F00F02B8
:10A9C000142101FB0233D3F80836F0E711B1D3F8B4
:10A9D000A837ECE702F00F02142101FB0233D3F891
:10A9E0000837E4E7BDE8F0814260030000700240F0
:10A9F000F0B5064689B01422002103A809F0CCFF67
:10AA00003378013B052B21D8DFE803F095031414BC
:10AA1000851603238DF814300024FFF727FF034623
:10AA2000A0B1047400F10802DDE9050182E8030029
:10AA3000184627E00423EDE7B7783846FFF718FEFD
:10AA4000837A054623B1013B022B5ED909B0F0BDE4
:10AA50003B06F4781DD554B1032CF7D037483B465C
:10AA60002246452109B0BDE8F04009F0B8B8FFF72B
:10AA7000FDFE03460028E9D00122AC7702740322D0
:10AA800002739D60FFF72CFE09B0BDE8F040FFF7B0
:10AA90001FBE54B1012CE1D1FFF7E8FE03460028A8
:10AAA000D4D06C7704740473EBE7FFF7DFFE044641
:10AAB0000028CBD001230374022303738560B07890
:10AAC00005F10C0109F00DFA024670B11C48452150
:10AAD00009F085F81B491C4840F29D3208F0A1FF9F
:10AAE000184840F29D3108F093FF1849E868B1F822
:10AAF0008C32834206D91B1AA1F88C3201F026FB56
:10AB00002046BFE7A1F88C22FAE7304609B0BDE83D
:10AB1000F040FFF70DBF01A801F0F6FA9DF80530EF
:10AB2000052B04D19DF8043013F0600F8ED0084B34
:10AB30000593012471E702246FE700BF4260030020
:10AB400073600300AA5F0300C6570300D8130020F8
:10AB5000441500202DE9F0439E4DDFF87C9285B02E
:10AB60008046FFF7E7FD074610B905B0BDE8F08362
:10AB700095F825303A7C3BB9002A00F0AF8079681F
:10AB8000954805F0FBFEECE7042A00F2C981DFE8F6
:10AB900012F0A500050067017D019D0118F8043C35
:10ABA0002BB9BB688D485A7A452109F018F8BC6862
:10ABB00054B98B498B484FF44B7208F032FF4FF475
:10ABC0004B71874808F024FF3B7B032B42D8DFE81A
:10ABD00003F002486D72A27A42B1814981484FF474
:10ABE000397208F01EFF4FF43971EAE766697E4B4F
:10ABF00032607260D3F880143170D3F884147170AD
:10AC0000D3F88814D3F88C0441EA00217180D3F87A
:10AC10009014D3F8940441EA0021B180D3F8981439
:10AC2000D3F89C3441EA0323F3800823E3603068BF
:10AC300071686E4B03C311462368607A984796F992
:10AC40000030002B09DBF3889AB232B1A5F88C32C0
:10AC500001F07CFA7968484693E70023A5F88C3226
:10AC6000F8E7637F002BF5D0237F002BF2D000267E
:10AC70004FF0FF325E4866774FF0FF33267709F0DA
:10AC800004F9636901936368CDE9023601A9607A2A
:10AC900000F09AFE574B9842024603D05648452191
:10ACA00008F09DFF524809F0F2F8D3E7236801212C
:10ACB000607A9847CEE7A37A6BB9E37F5BB94C48DB
:10ACC0004FF0FF324FF0FF3309F0DFF801F044FAA4
:10ACD000474809F0DCF823680221E9E73A7A042AB8
:10ACE000B8D8DFE802F08D032DA6B20000F06EFDAB
:10ACF00004460028AED100F075FCBFF35B8F3F49DE
:10AD0000012351E8002F002A03D141E80030002838
:10AD1000F7D1BFF35B8F9DD141F8084C41F8104C3F
:10AD2000E8696B611439FDF7AFF9002892DA2C4914
:10AD30002C4840F2AA2208F074FE40F2AA2140E713
:10AD4000002464F07F00C0B2FFF792FC40B92449B0
:10AD5000244840F2312208F064FE40F2312130E70D
:10AD6000037A13B1407A01F0AFFB0134082CE8D12B
:10AD700095F854311BB195F8550101F0A5FB00245D
:10AD8000E0B2FFF775FC40B91549164840F243227E
:10AD900008F047FE40F2432113E7037A13B1407AEB
:10ADA00001F092FB0134082CEAD195F874321BB102
:10ADB00095F8750201F088FB002000F0D7FC012314
:10ADC00085F825302B68002B3FF444AF002102208A
:10ADD00098473FE7D81300209002002098600300B6
:10ADE000AA5F0300C657030000700240DC13002076
:10ADF000101400200000AD0BC3600300F813002006
:10AE0000002485F8254001F0A5FAFFF76FFCA04269
:10AE100008DA4649464840F2C22208F002FE40F2F3
:10AE2000C221CEE62B68002B3FF414AF214604204C
:10AE3000CEE7002B3FF40EAF00F0D2FC2B68002BC6
:10AE40003FF408AF00210520C2E72A68002A3FF43A
:10AE500001AF002B3FF4FEAE002106209047F9E63B
:10AE600008F110044FF0FF334FF0FF32204609F095
:10AE70000CF8FFF79FFC204609F009F858F8283C29
:10AE8000002B3FF4E7AE00210120A1E795F87432D2
:10AE90005BB1012485F8894285F88842FFF7E6FC1A
:10AEA00058B92448452108F09AFE58F8283C002B50
:10AEB0003FF4D0AE00210A208AE71F4A04740473CD
:10AEC0008260FFF70DFCFFF703FCEEE71B4845210E
:10AED00008F085FE09F014FC01F03CFA00F064FB78
:10AEE000FFF7B6FCFFF766FC40B11049104840F28E
:10AEF000864208F096FD40F2864162E609F0F9FBD1
:10AF00000F4800F0E9FC0F4B98423FF4A3AE07490D
:10AF1000074840F28D4208F084FD40F28D4150E632
:10AF20000948452108F05BFE94E600BFAA5F0300D4
:10AF3000C6570300EE6003004416002007610300BB
:10AF4000F1A902000000AD0B2361030038B5164DD6
:10AF500095F824402CBB05F1380009F03AFC204656
:10AF600001F07EFC22460121E8612720FFF796F8D8
:10AF700009F0BFFBFFF71EFC044610B9012385F85A
:10AF800024300A4B1B680BB1FFF7A2FB4FF0804344
:10AF9000D3F83834DB0702D50020FFF7A5FC2046A4
:10AFA00038BD0024FBE700BFD81300202403002095
:10AFB00008B50E4B93F824209AB193F8253083B14D
:10AFC0000B4BD3F87034DBB283420DD009490A48E9
:10AFD00040F2595208F025FD064840F2595108F058
:10AFE00017FD6FF0120008BD0020FCE7D813002009
:10AFF00000700240AA5F0300C657030008B503783B
:10B00000027903F00F013AB991B10D48452108F0DA
:10B01000E6FD4FF0FF3008BD082902D90948452157
:10B02000F5E7012A04D11B0708D407485721EEE7AA
:10B0300013F00800EFD005485721E8E70020EAE7C1
:10B04000406103006461030088610300A3610300A1
:10B0500038B5124B93F824300446E3B105782846FE
:10B06000FFF706FB80B145722379837263884360E2
:10B070002078618810F0080F09D14B1E0B4206D0D2
:10B080000748452108F0ABFD6FF0150038BD00F012
:10B09000DDFB0020FAE76FF01200F7E7D81300207D
:10B0A000C561030038B5154B93F8242005460AB353
:10B0B00093F82530F3B1FFF7DBFA044610B96FF0CF
:10B0C000150038BD837A012B0FD007D9023B012B25
:10B0D00007D96369A3610020E060F2E701F042F85C
:10B0E000F7E7284600F0C0FFF3E70548452108F0E0
:10B0F00076FDE4E76FF01200E3E700BFD81300200D
:10B10000F261030038B50E4B93F82420054682B156
:10B1100093F825306BB1FFF7ABFA68B115F008046E
:10B120000AD1284600F0D4FF284601F005FA20464F
:10B1300038BD6FF01200FBE76FF01500F8E700BFB5
:10B14000D813002038B50C4B93F8242005460C4644
:10B1500062B193F825304BB1FFF78AFA48B144B198
:10B16000284600F09BFF2070002038BD6FF01200D1
:10B17000FBE76FF01500F8E7D813002070B5134E09
:10B1800096F824300446C3B1FFF772FA0546B8B109
:10B19000230705D4204600F09BFF204601F0CCF9A0
:10B1A0002B7A83B901232B7296F825300BB9002036
:10B1B00070BD204601F088F9F9E76FF01200F7E75B
:10B1C0006FF01500F4E76FF07700F1E7D813002077
:10B1D0002DE9F043DFF8F0801E4698F8243085B062
:10B1E000074689461546002B6BD098F82530002B72
:10B1F00067D003060AD5FFF73BFA044630B1037A5D
:10B2000053B932483A46452108F0E9FC6FF015047D
:10B21000204605B0BDE8F0834FF0FF334FF0FF321A
:10B2200008F1380008F031FEA37F33B108F138008F
:10B2300008F02DFE6FF00A04EAE7A37AFDB173B3BC
:10B240000123A3774FF0000801A93846CDE9019505
:10B25000CDF80C8000F0B8FB1D4B984202462CD074
:10B2600084F81E800EB1C6F800801A48452108F007
:10B27000B6FC6FF00404184808F009FEC8E7E27F46
:10B2800002B1E577002BDBD100F072FFB842D7D0D6
:10B2900000F062FF104808F0FAFD0024B8E7B8F8A3
:10B2A0000A30AB42F0D96268B5FBF2F302FB1353EC
:10B2B000002BE9D10123E377E6E706B135600024EE
:10B2C000D9E76FF01204A3E7D81300201962030036
:10B2D0000000AD0B3D620300101400202DE9F04189
:10B2E0001D46264B174693F8242080460E46002A1A
:10B2F00040D093F82530002B3CD010F0800F01D1C6
:10B3000021B91FB16FF01500BDE8F0814046FFF78D
:10B31000AFF904460028F5D0037A2BB91848424605
:10B32000452108F05CFCEDE74FF0FF3315484FF086
:10B33000FF3208F0AAFDE3689F42B84628BF98464E
:10B340003EB937B905B12B600E4808F0A0FD0020CA
:10B35000DAE7A1694246304609F010FBA36943448D
:10B36000A361E368A3EB0803E360002DECD0C5F80C
:10B370000080E9E76FF01200C6E700BFD813002095
:10B38000196203001014002070B5214D95F8243087
:10B390000646002B38D095F82530ABB303060AD407
:10B3A000FFF766F9044630B1037A3BB919483246D3
:10B3B000452108F014FC6FF0150070BD4FF0FF330D
:10B3C0004FF0FF3205F1380008F05FFDE368B3B9D4
:10B3D000012663692677A361637F83B1FFF746FA8D
:10B3E00030B905F1380008F052FD6FF00B00E4E7CA
:10B3F000067484600673FFF773F9FFF769F906486E
:10B4000008F045FD0020D8E76FF01200D5E700BF37
:10B41000D8130020196203001014002010B5084B47
:10B4200093F824300C462BB1FFF722F928B10460C1
:10B43000002010BD6FF01200FBE76FF01500F8E779
:10B44000D8130020014B1860704700BFD8130020AC
:10B4500008B5074B93F8243023B1FFF709F920B161
:10B46000406808BD6FF01200FBE76FF01500F8E7C9
:10B47000D81300204FF08053D3F83021082A06D18A
:10B48000D3F83431052B04D8034AD05C7047002030
:10B4900070470120704700BFB0620300EFF31180D6
:10B4A000402383F31288BFF36F8F0A4BD3F8001C3D
:10B4B000032261B949F27531C3F8001CC3F8142D99
:10B4C000C3F8001C80F31188BFF36F8F7047C3F877
:10B4D000142DF7E700E00640EFF31180402383F3DB
:10B4E0001288BFF36F8F0A4BD3F8001C61B949F281
:10B4F0007532C3F8002CC3F8141DC3F8002C80F378
:10B500001188BFF36F8F70470022C3F8142DF6E740
:10B5100000E0064000F00F02082A08B50AD90B49DE
:10B520000B484FF4D77208F07CFA08484FF4D771F3
:10B5300008F06EFA074B10F0800F03F1D80118BF26
:10B540000B46182000FB023008BD00BF68620300F4
:10B55000C6570300A81C002008B500F00F03082BF5
:10B560000AD90849084840F2C11208F05AFA0548B9
:10B5700040F2C11108F04CFAC043C0F3C01003EB15
:10B58000001008BD68620300C65703004FF08053E7
:10B59000D3F83031082B02BF024B0022C3F81C2C19
:10B5A000704700BF0070024008B50A4B1A78012AA4
:10B5B0000AD00949094840F2744208F032FA0648B4
:10B5C00040F2744108F024FA054900220A601A701A
:10B5D00008BD00BF6623002068620300C657030051
:10B5E000601E002010B5574C2378012B0AD0564915
:10B5F000564840F27C4208F014FA40F27C4152482E
:10B6000008F006FA524B4FF40062C3F80024FFF72B
:10B6100031FF08B1FFF742FF4FF08053D3F83031CC
:10B62000082B18D1EFF31180402383F31288BFF366
:10B630006F8F484BD3F8001CC02200296DD149F20E
:10B640007531C3F8001CC3F8142CC3F8001C80F338
:10B650001188BFF36F8F3E4B0122C3F80025D3F84A
:10B6600000241205FBD54FF40062C3F800244FF00C
:10B670008053D3F83031082B17D1EFF311804023DA
:10B6800083F31288BFF36F8F324BD3F8001C00296D
:10B6900046D149F27532C3F8002CC3F8141CC3F824
:10B6A000002C80F31188BFF36F8FFFF7E3FE30B1FA
:10B6B000FFF712FFFFF7DEFE08B1FFF7EFFE4FF0D6
:10B6C0008053D3F83031082B214B0AD140F2E3727A
:10B6D000C3F800284022C3F80428BFF36F8FBFF3DC
:10B6E0004F8F8022C3F81C250122C3F830251A4B46
:10B6F00040F2FF121A60194B00211960184B1970A3
:10B70000184B9B68012B0FD00F4910484FF49562DE
:10B7100008F087F94FF4956171E7C3F8142C96E7A8
:10B720000022C3F8142CBCE7FFF730FF0E4B197052
:10B7300002232370FFF79EFE18B1BDE81040FFF70B
:10B74000CBBE10BD6623002068620300C65703000D
:10B750000070024000E006405C1E0020581E0020E1
:10B7600062230020140300206423002010B5104B36
:10B770001B78022B0AD00F490F4840F2DC4208F038
:10B7800050F90C4840F2DC4108F042F90B4B0C4CEC
:10B7900000221A700B4A0C4B002808BF1346C4F84D
:10B7A00000332720FEF74AFC0123C4F8043510BDFE
:10B7B0006623002068620300C6570300652300204B
:10B7C00000700240FDFFDF01FDFFFF01034B187811
:10B7D000012894BF00200120704700BF662300208D
:10B7E00010B54FF0FF324FF0FF33154805F06CFCF9
:10B7F000EFF31181402383F31288BFF36F8F114B56
:10B800001B7803F0FF0483B10F4BD3F8002412F42C
:10B8100000720AD10120C3F82C05D3F82C05D3F807
:10B820000004800502D5C3F82C25002481F311887B
:10B83000BFF36F8F024805F0E5FB204610BD00BF47
:10B840001403002065230020007002404B1E0B42B1
:10B8500010B500F008030C460CD001071ED11B499F
:10B860001B4840F2695208F0DCF840F26951174871
:10B8700008F0CEF891B9020708D11449144840F2F3
:10B880006B5208F0CEF840F26B51F0E713B1114B58
:10B89000D3F81C35FFF73EFE848210BDA3B10D4BDB
:10B8A000D3F81C1540F2FF3240F2FF13802918BF75
:10B8B00013469C42EED90549054840F26D5208F006
:10B8C000B0F840F26D51D2E7402CF3E76862030014
:10B8D000C657030000700240F8B550B9214922480C
:10B8E00040F24D4208F09DF81E4840F24D4108F0EC
:10B8F0008FF81E4B1C7894BB1D4A106001221A70F1
:10B9000040F2FF17264664F07F0514F0080FEDB2F1
:10B9100014BF394640212846FFF798FF2846FFF715
:10B92000F9FD0134092C867506730661EBD10024FC
:10B9300040F2FF17254614F0080FE6B214BF39464F
:10B9400040213046FFF782FF3046FFF7E3FD013428
:10B95000092C857505730561EDD10648F8BD0648CB
:10B96000FCE700BF68620300C6570300662300209F
:10B97000601E00200000AD0B0500AD0B08B543B202
:10B9800000F00F0008280AD90C490D4840F28152F6
:10B9900008F047F8094840F2815108F039F8002BC7
:10B9A000084BB4BFD3F81025D3F8142501238340E6
:10B9B000134214BF0120002008BD00BF68620300CD
:10B9C000C6570300007002402DE9F84381460C463B
:10B9D000FFF7C2FDEFF31188402383F31288BFF312
:10B9E0006F8F54B92649274840F2BC5208F019F825
:10B9F00040F2BC51224808F00BF819F00F0F03D1A8
:10BA0000214B1B784B4537D1204B214F1B683D689C
:10BA1000DB4301269BB286402B4333422ED148465E
:10BA2000FFF778FD19F0800F03460FD122686AB145
:10BA300002F06042B2F1005F08D0114911484FF4A2
:10BA4000BA6207F0EEFF4FF4BA61D3E701221A732E
:10BA500094E8070083E8070000221A619A750D4BED
:10BA60000D48354380223D60C3F8042188F31188D6
:10BA7000BFF36F8FBDE8F8830848F7E70848F5E79C
:10BA800068620300C6570300642300205C1E002088
:10BA9000581E002000E100E00000AD0B0A00AD0BD5
:10BAA0000B00AD0B10F0080F074B06D0D3F8C00405
:10BAB00010F4803F18BF0020704700F00F0000F521
:10BAC000947053F820007047007002402DE9F74F42
:10BAD000A04BA14DD3F85421DAB10022C3F8542170
:10BAE000D3F80413890214D58DF80420D3F8202547
:10BAF000ADF80620D3F8C034002B2B6814BF4FF0EC
:10BB000001224FF4807213432B60944B01A81B68F1
:10BB10009847904BD3F8604134B10022C3F86021BC
:10BB2000D3F86C44C3F86C44D3F828214AB10022FE
:10BB3000C3F828218A4B1878FFF70EFD01238340B4
:10BB40001C43884F97F8008097F9009008F00F0386
:10BB5000082B0AD9844985484FF4917207F061FF98
:10BB60004FF49171804807F053FF18F00801804EA0
:10BB700042D1B9F1000F2FDA7E4A52F8230020B3E8
:10BB800042F823101422534303F1804303F51C337E
:10BB9000D3F80836784A117803F001034B4013704C
:10BBA000FFF7F4FC754805F02DFA4046FFF7B2FCAC
:10BBB000837D032B38D14046FFF7CEFC012303FAE7
:10BBC00000F0336823EA00033360DFF890A14FF000
:10BBD00001084FF006095DE0694A52F82300002889
:10BBE000F3D042F823101422534303F1804303F5AA
:10BBF0001C33D3F80837CDE7B9F1000F554B09DBFB
:10BC0000D3F85021002AE0D00022C3F85021D3F805
:10BC1000A837BFE7D3F82C21002AD6D00022C3F8DA
:10BC20002C21D3F8A836B5E7037BE3B94046FFF7EC
:10BC300093FC012303FA00F03368B9F1000F23EA03
:10BC40000003336002DAB8F1880FBED106238DF805
:10BC5000043000238DF80730404B8DF806801B68B8
:10BC600001A89847B1E7B8F1000FAED1394B0122D6
:10BC7000DA64AAE794FAA4F02A68B0FA80F008FA25
:10BC800000F31A430F282A6024EA0304326849DDCE
:10BC9000134256D0002CEDD12E4BD3F800215AB1CF
:10BCA000C3F80041374B1C702D4B1C7001230193CE
:10BCB0002A4B01A81B689847264BD3F85821002A25
:10BCC0006DD00022C3F85821D3F80044C3F80044D3
:10BCD000E20508D52B4B01221A70022301931F4B5A
:10BCE00001A81B689847A30508D5264B00221A70A7
:10BCF00003230193194B01A81B68984760054ED593
:10BD0000204A1378002B4AD0124BD3F82C15002967
:10BD10003AD01549154840F2F52207F082FE40F26C
:10BD2000F5211FE71340B5D160F07F018DF8049035
:10BD30008DF806108DF80730DAF8003001A8984722
:10BD4000A8E7A0F110018DF804908DF806108DF889
:10BD50000780F1E7007002405C1E0020601E00209A
:10BD6000642300206323002068620300C657030099
:10BD7000581E002008710240622300201403002096
:10BD8000307102406523002011700122C3F808259C
:10BD90009A6504230193AD4B01A81B689847AC4BEF
:10BDA000D3F85C31FBB1AB4B9B6813B93B785906B8
:10BDB00019D0A74B0022C3F85C21D3F88034A64ADF
:10BDC00023F07F031370336823F0011333602B6873
:10BDD00023F4803343F001032B60052301939B4B35
:10BDE00001A81B68984732682B681A4200F01C8132
:10BDF00098480022002305F067F9002840F01481DC
:10BE0000934BD3F82C35002B00F09A80914803B067
:10BE1000BDE8F04F05F0F6B849F0800B5846FFF743
:10BE200079FB037B0446002B00F0AA804368B0F83E
:10BE300014800168984528BF984601F06043B3F12B
:10BE4000005F23D12268636842442260A268A3EBAA
:10BE50000803D2074FFA8BF0636040F1A680B8F177
:10BE6000000F40F0A58000232373A1E05846FFF7A0
:10BE700019FEB4F814C060451AD97849784840F2E0
:10BE8000631207F0CEFD40F263116BE6B8F1400F8C
:10BE900008D9724972484FF4C17207F0C2FD4FF4DD
:10BEA000C1715FE66F48424608F068FD6D49C9E719
:10BEB00023686BB103F06043B3F1005F08D06749BA
:10BEC00067484FF4B27207F0ACFD4FF4B27149E627
:10BED0006368226898429BBF1B1A02EB000E4FF06A
:10BEE000000863609CBFC4F800E0804660451146CE
:10BEF0000FD1003B18BF01236AB9B8F1000F52D02F
:10BF0000564957484FF45A7207F08BFD4FF45A7157
:10BF100028E60023F0E740453BD9012303FA09F363
:10BF20002AEA0303022233600623A2758DF8043047
:10BF3000464B8DF806B01B688DF8072001A898477E
:10BF4000D6F800A02B681AEA03093FF45FAF19F096
:10BF5000012314BF93FAA3F999FAA9F9B9FA89F957
:10BF6000B9F10F0F7FF658AFA9F1100B5FFA8BFBF9
:10BF70005846FFF7CFFA037B0446002B7FF476AFD9
:10BF80003649374840F2573207F04BFD40F25731FF
:10BF9000E8E508D03149324840F2793207F041FDF6
:10BFA00040F27931DEE54FFA8BF0002B3FF45BAFC6
:10BFB0004FF080530126D3F83031082B02BF244BB9
:10BFC0008222C3F81C2C2B6887F800B006FA09F906
:10BFD00023EA09032B602369434423610BF00F0418
:10BFE000082C08D91D491E484FF4A47207F019FD0A
:10BFF0004FF4A471B6E51BF0080F154B17D10028BC
:10C000004FF0140202FB0432A9BF0A3403EB84038D
:10C01000C2F80017C2F80487AFBF43F82460C2F823
:10C020000016C2F804865E6003B0BDE8F08F0028F9
:10C03000B5BFC3F8A016C3F8A017C3F8A486C3F809
:10C04000A487B4BF5E629E64EEE700BF601E00205E
:10C050000070024014030020642300206862030083
:10C06000C6570300681C002008B503070AD5084915
:10C07000084840F2076207F0D4FC054840F2076127
:10C0800007F0C6FC044B40F48070C3F8180508BDE7
:10C0900068620300C657030000700240030713D410
:10C0A00000F00F0310F0800F084A0BBF03F58873F0
:10C0B00003F5847302EB830252F8230008BF506833
:10C0C000003818BF01207047002070470070024000
:10C0D00008B503070AD50949094840F2296207F063
:10C0E000A0FC064840F2296107F092FC054BC3F81A
:10C0F0000C0540F48070C3F80C0508BD68620300AD
:10C10000C6570300007002400023036043600E4BDB
:10C11000D3F880240270D3F884244270D3F88824A2
:10C12000D3F88C1442EA01224280D3F89024D3F849
:10C13000941442EA01228280D3F89824D3F89C34E4
:10C1400042EA0323C380704700700240014B012282
:10C15000DA64704700700240014B01221A65704793
:10C1600000700240014B01225A6570470070024086
:10C17000014B1878704700BF6423002038B504468F
:10C18000EFF31185402383F31288BFF36F8F03060B
:10C190000AD51249124840F2536207F042FC0F4898
:10C1A00040F2536107F034FCFFF7D6F90D4A012342
:10C1B00003FA00F0136823EA0003136014F0080286
:10C1C00001BF04F00F04084B04F5947443F82420D5
:10C1D00085F31188BFF36F8F38BD00BF686203001D
:10C1E000C65703005C1E0020007002402DE9F04F8E
:10C1F000044685B0EFF31187402383F31288BFF321
:10C200006F8FFFF787F914F0800F414E05462BD151
:10C210002046FFF7A1F9D6F800804FF0010909FA8E
:10C2200000F030EA08000BD02046FFF7A7FF0323F9
:10C23000AB7587F31188BFF36F8F05B0BDE8F08F42
:10C2400028732046FFF788F909FA00F028EA000071
:10C2500030602046FFF780F92E4A136809FA00F98A
:10C2600023EA09031360E2E7230715D4802C2A4B45
:10C2700041D004F00F0202F2DA325200C3F8002873
:10C28000D3F80428D3F80418D2B242F002020A43C9
:10C29000C3F80428D3F80438DFF87890D6F800B053
:10C2A000D9F800A020466BEA0A030193FFF754F97E
:10C2B0004FF00108019B08FA00F00342B9D02BEAC5
:10C2C000000030602046FFF747F900232B7303235B
:10C2D00008FA00F8AB758DF80F30104B8DF80E4052
:10C2E00048EA0A000622C9F800001B688DF80C20F5
:10C2F00003A898479DE740F2B472C3F80028D3F82A
:10C300000428D3F80418D2B242F00402BFE700BFF9
:10C31000581E00205C1E002000700240601E00209D
:10C3200038B50446094D4FF0FF324FF0FF33284631
:10C3300004F0CAFE2046FFF759FF284604F062FECB
:10C34000034B8022C3F8042138BD00BF1403002032
:10C3500000E100E02DE9F0413A4D2B7853B93A491C
:10C360003A4840F2BA4207F05CFB40F2BA41364824
:10C3700007F04EFB4FF0FF3335484FF0FF3204F02B
:10C38000A3FE2B78022B08D02F49304840F2FC4204
:10C3900007F047FB40F2FC41E9E72E4B8022C3F84F
:10C3A00084212720FDF76CFEA0B12B4F2B4B3C685E
:10C3B0001B68240C24041C434FF0010864BB284E66
:10C3C00040F2FF133B602720C6F80445FDF744FE0A
:10C3D000C6F80043234A13788BB1214B0021C3F8E0
:10C3E00008110121C3F80026C3F804165960D3F8D8
:10C3F00008110029FBD00021C3F808111170184B57
:10C400000022C3F80025FFF7C1F8114804F0FAFD37
:10C4100001232B70BDE8F08194FAA4F6B6FA86F6F3
:10C420000F2E3046C6BFA6F11000C0B240F080000B
:10C43000030701D4FFF7DAFE08FA06F624EA060439
:10C44000BCE700BF6623002068620300C6570300F4
:10C450001403002000E100E05C1E0020581E0020B4
:10C46000007002406223002010B504464FF0FF32F6
:10C470004FF0FF33114804F027FE2046FFF7B6FEC9
:10C4800004F00F02012393400D4A14F0800F14BFF3
:10C49000D2F81015D2F814156FEA030315BF0B403C
:10C4A0000B40C2F81035C2F81435044804F0AAFD58
:10C4B000044B8022C3F8042110BD00BF14030020E8
:10C4C0000070024000E100E070B50446FFF756FA44
:10C4D00068B904F00F02012514F0800F144B05FA1F
:10C4E00002F205D0D3F810150A43C3F8102570BD29
:10C4F000D3F814150A43C3F81425631E062BF6D887
:10C50000EFF31186402383F31288BFF36F8F204629
:10C51000FFF734FE2046FFF71FF8064A13688540F0
:10C5200023EA0503136086F31188BFF36F8FDEE7FC
:10C5300000700240581E0020020710B504460AD5BC
:10C540000B490C4840F20F6207F06BFA084840F2C2
:10C550000F6107F05DFA030605D4FFF79FFD10B1E8
:10C560002046FFF70BFE044BC3F8184510BD00BF73
:10C5700068620300C65703000070024037B50C46DE
:10C580000A490B4A411A40230093491105462346A4
:10C59000084807F0BDFC011E05DA2846234603B013
:10C5A000BDE83040184703B030BD00BF781E002002
:10C5B000793F0300244B0300C9B2012908B508D90B
:10C5C000084909487F2207F02CFA06487F2107F026
:10C5D0001FFA03690C2201FB0233986C00F007007C
:10C5E00008BD00BFC6620300C657030070B5C9B2DC
:10C5F000012903690AD91849184840F2D11207F0F5
:10C6000010FA154840F2D11107F002FAEFF3118544
:10C61000402484F31288BFF36F8F0C2606FB01348D
:10C62000A46C14F0C00408D0A24206D085F311888F
:10C63000BFF36F8F4FF0FF3070BD71430B44012289
:10C640009A6485F31188BFF36F8F43680B445B686E
:10C6500098470020F0E700BFC6620300C6570300FA
:10C6600070B50D460649411A044649110548402255
:10C67000FFF7BCFF2B4601462046BDE87040184737
:10C68000781E0020244B0300002270B501210446CF
:10C690001046FDF703FD0F4802F03CFF0E4B984299
:10C6A00015D102F047FF26690C49304607F023FAFE
:10C6B00000280BDB0125B5642469084904F120003A
:10C6C00007F019FA002801DB6565002070BD6FF0E6
:10C6D0000400FBE795C702000000AD0B9C5003006F
:10C6E0001FB500220123CDE90223094ACDF800D06D
:10C6F0006B46CDF804D007F038FC002805DB4FF47A
:10C7000080420023684604F0DFFC05B05DF804FBBE
:10C71000913F030010B5EFF31184402383F3128897
:10C72000BFF36F8F074A136823F00201DB07116024
:10C7300002D4012002F092FF84F31188BFF36F8FBF
:10C7400010BD00BFD01E002030B4104B0C2202FBE5
:10C75000003301460020D3E910521864EFF3118032
:10C76000402484F31288BFF36F8F9C6C04F0C004E4
:10C7700044F002049C6480F31188BFF36F8F1DB1F5
:10C780002B46034830BC184730BC7047781E002049
:10C79000244B0300012808B506D0032808D090B91F
:10C7A0000E4B9B6C5B0717D1BDE80840FFF7CCBF71
:10C7B0000B490C484FF43D7207F033F94FF43D71CB
:10C7C000074807F025F9064906484FF4417207F07B
:10C7D00028F94FF44171F3E708BD00BF781E00202F
:10C7E000C6620300C657030010B4EFF31182402362
:10C7F00083F31288BFF36F8F1748016841F002047A
:10C800000460C80707D482F31188BFF36F8F01203B
:10C8100010BC02F0B7BE4FF08041D1F80C04D1F843
:10C820000C14C907EFD5EFF3118083F31288BFF31F
:10C830006F8F0A498B6C03F0C00343F002038B64D3
:10C8400080F31188BFF36F8F82F31188BFF36F8F6E
:10C85000002010BCFFF778BFD01E0020781E0020FB
:10C86000024BC0B203EB4010704700BF781E00209F
:10C870002DE9F0414349BFF35B8F0646012251E8A1
:10C88000003F41E800200028F9D1BFF35B8F9BB93E
:10C890003D493E484B60CB608A60FBF7F5FB0028C2
:10C8A0000ADA3B493B484FF4297207F0BAF84FF4D3
:10C8B0002971374807F0ACF876B3731E012B58D8AE
:10C8C000012E07D14FF08043D3F81C3403F003034B
:10C8D000012B21D007F0C9FF0546F8B92E4B1B7874
:10C8E000E3B14FF080430222C3F808230746DFF884
:10C8F000AC804FF08044D4F81824D4F81834D20314
:10C9000015D503F00303012B01D0012E0FD155B330
:10C9100087F31188BFF36F8FBDE8F081EFF31187C4
:10C92000402383F31288BFF36F8F0125DFE7ADB19A
:10C93000384607F073FAD4F81835002BDBD1D4F859
:10C940000421002AD7D0C4F80431D4F804310123DB
:10C95000C4F81835C8F88031A360CCE70021212045
:10C9600005F0DCFCE7E74FF080430222C3F8042324
:10C97000D2E70749074840F2B62207F052F840F2E2
:10C98000B62196E7741E0020641E0020981E002029
:10C99000C6620300C65703003026002000E100E015
:10C9A00008B5074807F0BEFE38B10648FDF704FE9B
:10C9B0000448FBF757F9002008BD6FF01200FBE7B1
:10C9C000844B0300C9C902000A2838B5074D044644
:10C9D00004D1AB680D215B6828469847AB680348D3
:10C9E0005B68E1B29847204638BD00BF844B030026
:10C9F00010B5036941B91C491C483F2207F011F8E2
:10CA00003F21194807F004F8486830B9164917481B
:10CA1000402207F006F84021F3E75868F8B1884251
:10CA200019D19C6808685860A14200D19860002024
:10CA300008602AB15A680A609A68596002B9996018
:10CA4000002010E0814206D1086820609868814289
:10CA5000EDD19C60EBE7044600680028F2D1002A83
:10CA6000E8D16FF0150010BD2C630300C65703001A
:10CA700008B503685909024613D0012906D103F00D
:10CA80001F034FF6FF71D940C80712D40A490B485B
:10CA900040F2CA3206F0C5FF074840F2CA3106F03C
:10CAA000B7FF4FF0FF31D940C907EFD54FF0A04095
:10CAB00000E00348136008BD68630300C657030025
:10CAC00000030050F0B54068057B01F01F0444EA04
:10CAD0004514056987B0002D77D0B2F5001F00F12D
